:100000000C94F3050C941B060C941B060C941B0615
:100010000C941B060C941B060C941B060C941B06DC
:100020000C941B060C941B060C941B060C941B06CC
:100030000C941B060C941B060C941B060C941B06BC
:100040000C94FA060C941B060C941B060C941B06CD
:100050000C941B060C941B060C941B060C941B069C
:100060000C94940E0C941B0600407A10F35A00A0D6
:10007000724E18090010A5D4E80000E87648170071
:1000800000E40B54020000CA9A3B000000E1F505B1
:10009000000080969800000040420F000000A086FB
:1000A00001000000102700000000E803000000002D
:1000B0006400000000000A000000000001000000D1
:1000C00000002C76D888DC674F0823DFC1DFAE59EB
:1000D000E1B1B796E5E3E453C63AE651997696E87E
:1000E000E6C28426EB898C9B62ED407C6FFCEFBC02
:1000F0009C9F40F2BAA56FA5F490055A2AF75C932D
:100100006B6CF9676DC11BFCE0E40D47FEF520E662
:10011000B500D0ED902E0300943577050080841E45
:10012000080000204E0A000000C80C333333330FA0
:10013000986E12831141EF8D2114893BE65516CF3D
:10014000FEE6DB18D1844B381BF77C1D901DA4BB49
:10015000E424203284725E228100C9F124ECA1E5FE
:100160003D27205F010100000000000000000000AA
:10017000005F5F0000000007070000070700002283
:100180007F7F227F7F22242E2A6B2A3A1200466626
:1001900030180C66620020765F493F765000000000
:1001A00000070700000000001C3E63410000000043
:1001B00041633E1C000004151F0E1F1504000008BB
:1001C000083E3E08080000004070300000000008B3
:1001D00008080808080000000060600000000060D7
:1001E00030180C0603003E7F4141417F3E00004035
:1001F000427F7F40400062735949494F4600226365
:100200004949497F36001C1E13117F7F1000276764
:100210004545457D39003E7F4949497B320003030E
:1002200001797D070300367F4949497F3600266FF3
:100230004949497F3E0000000036360000000000BA
:100240004076360000000000081C366341000014B0
:1002500014141414140000004163361C080000023A
:100260000159590F06003C4299A5A5B9221C7E7F71
:100270001111117F7E007F7F4949497F36003E7F03
:100280004141416322007F7F4141417F3E007F7FAA
:100290004949494941007F7F0909090101003E7F21
:1002A0004141497B3A007F7F0808087F7F000000BA
:1002B000007F7F00000020604040407F3F007F7F44
:1002C000081C366341007F7F4040404040007F7FF4
:1002D000060C067F7F007F7F060C187F7F003E7F25
:1002E0004141417F3E007F7F1111111F0E003E7F73
:1002F000414141FFBE007F7F1111117F6E00266FCB
:100300004949497B32000001017F7F0101003F7FA5
:100310004040407F3F000F1F3060301F0F007F7F45
:10032000301C307F7F0063771C081C776300000758
:100330000F78780F07006171795D4F474300000027
:100340007F7F414100000003060C18306000000070
:1003500041417F7F000000000C0603060C008080F6
:1003600080808080808000205F010100000000000C
:100370000000000000005E00000000000006000019
:1003800006000000247E24247E240000246B2A2AF8
:100390006B1200004626100864620000344A4A547A
:1003A00020500000000000060000000000003C4259
:1003B000000000000000423C000000002A1C3E1C1F
:1003C0002A00000008083E08080000000040300035
:1003D00000000000080808080808000000004000AD
:1003E0000000000040201008040200003C62524A55
:1003F000463C000040447E4040000000645252529F
:10040000524C000024424A4A4A3400003824222236
:100410007E2000002E4A4A4A4A3200003C4A4A4A9C
:100420004A300000020262120A060000344A4A4AB8
:100430004A3400000C525252523C0000000024008A
:10044000000000000040240000000000000814220A
:1004500000000000141414141414000000002214EE
:10046000080000000402520A0400000018245A5A2E
:10047000241800007C121212127C00007E4A4A4AA4
:100480004A3400003C424242422400007E42424242
:10049000423C00007E4A4A4A424200007E0A0A0A62
:1004A000020200003C424252523400007E0808081A
:1004B000087E000000427E420000000020404040D4
:1004C000403E00007E080808146200007E40404064
:1004D000404000007E040808047E00007E040810EE
:1004E000207E00003C424242423C00007E1212123A
:1004F000120C00003C425262423C00007E1212127A
:10050000324C0000244A4A4A4A30000002027E026D
:10051000020000003E404040403E00001E2040409F
:10052000201E00007E201010207E0000422418189B
:100530002442000002047804020000004262524A91
:1005400046420000007E4242000000000204081003
:1005500020400000000042427E0000000000040233
:10056000040000808080808080808000207E0102E6
:10057000000000000000000000000000000000007B
:10058000000000FCFC0000000000000D0D00000059
:10059000003C3C003C3C000000000000000000006B
:1005A00060F8F860F8F86000030F0F030F0F030006
:1005B00070F8C8FC88981000040C081F090F070089
:1005C0001C149CE0701C0C000C0E03010E0A0E00A3
:1005D000C0E02020E0C00000060F09090F0E0A004D
:1005E0000000003C3C000000000000000000000093
:1005F00000C0F0380C0400000001070E18100000C5
:1006000000040C38F0C000000010180E07010000B4
:100610004040C0F0C0404000000603010306000057
:1006200000C0C0F0F0C0C0000000000303000000E4
:1006300000000000000000000000111F0F07000074
:1006400000808080808080000000000000000000AA
:1006500000000000000000000000040E0E04000076
:10066000000080C060381C000E0701000000000080
:10067000F0F80C040CF8F00003070C080C0703005A
:10068000001018FCFC0000000008080F0F0808000C
:10069000181C0484C47C38000C0E0B0908080800E0
:1006A0000404446474DC8C00040C0808080F070080
:1006B000C0E03018FCFC0000010101010F0F010037
:1006C0007C7C642424E4C400040C0808080F0700A0
:1006D000F0F8CC4444C48000070F0C08080F070052
:1006E000040404C4E43C1C0000000F0F00000000E0
:1006F000B8FC444444FCB800070F0808080F070082
:1007000078FC8484CCFCF800000808080C0703007F
:1007100000002070702000000000040E0E04000095
:1007200000002070702000000000111F0F07000063
:100730000080C0603018080000000103060C0800AB
:10074000004040404040400000020202020202001D
:100750000008183060C0800000080C06030100008B
:10076000181C0484C47C38000000000D0D0000003B
:10077000F0F818D87878F000070F0C0B0A0A0B0075
:10078000F0F88C8C8CF8F0000F0F0000000F0F00B9
:1007900004FCFC4444FCB800080F0F08080F0700D5
:1007A000F8FC0C04041C1800070F0C08080E0600C7
:1007B00004FCFC0404FCF800080F0F08080F0700F5
:1007C000FCFC4444440404000F0F08080808080017
:1007D000FCFC4444440404000F0F0000000000002F
:1007E000F8FC0404041C1800070F0808090F070090
:1007F000FCFC404040FCFC000F0F0000000F0F000D
:10080000000004FCFC0400000000080F0F080000BA
:100810000000000004FCFC00060E0808080F07009A
:10082000FCFCC0E0301C0C000F0F0001030E0C009C
:10083000FCFC0000000000000F0F080808080C0076
:10084000FCFC306030FCFC000F0F0000000F0F00BC
:10085000FCFC70C080FCFC000F0F0000030F0F00B9
:10086000F8FC040404FCF800070F0808080F070050
:10087000FCFC848484FC78000F0F00000000000062
:10088000F8FC040404FCF800070F080C0C1F170008
:10089000FCFCC4C4C47C38000F0F0000030F0C0024
:1008A000387C444444DC9800060E0808080F070012
:1008B000000404FCFC0404000000000F0F00000012
:1008C000FCFC000000FCFC00070F0808080F0700F4
:1008D0003CFC800080FC3C000001070E070100008A
:1008E000FCFC000000FCFC00070F0C070C0F0700CD
:1008F0000C3CF0C0F03C0C000C0F0300030F0C008C
:10090000001C7CE0E07C1C000000000F0F000000D9
:10091000040484C4643C1C000E0F09080808080085
:1009200000FCFC0404040000001F1F101010000055
:100930001C3860C0800000000000000001070E00AD
:1009400000040404FCFC0000001010101F1F000035
:100950002030180C183020000000000000000000BB
:100960000000000000000000101010101010100017
:100970000000040C1810000000000000000000003F
:1009800000A0A0A0A0E0C000070F0808040F0F00FF
:10099000FCFC402020E0C0000F0F0408080F0700F7
:1009A000C0E0602020604000070F0C08080C040025
:1009B000C0E0202040FCFC00070F0808040F0F00D7
:1009C000C0E0202020E0C000070F0909090D050044
:1009D00080F8FC84848C0800000F0F0000000000E9
:1009E000C0E02020E0E02000153F2E2E2B39100023
:1009F000FCFC402020E0C0000F0F0000000F0F00A3
:100A0000000040D8D80000000000080F0F080000C8
:100A10000000000040D8D80018382020203F1F00D8
:100A2000FCFC80C0602000000F0F0103060C0800D2
:100A3000000004FCFC0000000000080F0F0800008C
:100A4000C0E060C060E0C0000F0F0001000F0F00A9
:100A5000E0E0402020E0C0000F0F0000000F0F007A
:100A6000C0E0202020E0C000070F0808080F0700A2
:100A7000E0E0402020E0C0003F3F0408080F0700EE
:100A8000C0E0202040E0E000070F0808043F3F00DE
:100A9000E0E04020206040000F0F00000000000058
:100AA00040E0A02020604000040C09090B0E040067
:100AB00040FCFC404040000000070F08080C040008
:100AC000E0E0000000E0E000070F0808040F0F005E
:100AD000E0E0000000E0E00001070E080E07010062
:100AE000E0E0000000E0E000070F0C070C0F07003B
:100AF00060E0800080E060000C0E0301030E0C003B
:100B0000E0E0000000E0E00013372424223F1F0053
:100B1000202020A0E06020000C0E0B09080808002F
:100B20000080B8FC4404040000000E1F11101000E7
:100B3000000000FCFC0000000000000F0F0000009F
:100B400000040444FCB88000001010111F0E0000C7
:100B50003018183830301800000000000000000085
:100B6000005EBCE2613FDD83C29C7E20A3FD1F418D
:100B7000009D23BE46DB65F88C11AF32CA57E9747D
:100B800000000000240027002A00000000002500CB
:100B900028002B00000000090003020000040508E3
:100BA0000000000000000000000000000000002322
:100BB00000260029000404040404040404020202C0
:100BC00002020203030303030302020301020408F7
:100BD00010204080010204081020010204081020A7
:100BE000408040007F1411241FBECFEFD8E0DEBF4D
:100BF000CDBF12E0A0E0B1E0E8E6F4E302C005906A
:100C00000D92A833B107D9F723E0A8E3B2E001C001
:100C10001D92A937B207E1F715E0C3EFD5E004C094
:100C20002197FE010E940818C23FD107C9F70E9410
:100C3000A7100C94321A0C940000CF92DF92EF921E
:100C4000FF920F931F93CF93DF936C017A018B0177
:100C5000C0E0D0E0CE15DF0581F0D8016D918D01A7
:100C6000D601ED91FC910190F081E02DC60109952E
:100C7000892B11F02196EECF7E01C701DF91CF9134
:100C80001F910F91FF90EF90DF90CF90089580E03B
:100C900008950E942D1AEF92FF921F93CF93DF9336
:100CA000EC01162F7A010E94AB0A60E4CE010E948B
:100CB000B50AE885F9859701412F67E1CE010995CD
:100CC000CE01DF91CF911F91FF90EF900C94A10A7C
:100CD000EF92FF921F93CF93DF93EC01142F7901D2
:100CE000663121F128F46431E9F1653149F056C0EB
:100CF000683109F44FC0F0F0693109F444C04EC0C6
:100D000080913802882319F0CE010E94A10ACE01F9
:100D10000E94AB0A60E0CE010E94B50A612FCE01AD
:100D20000E94B50A81E08093380239C0642F0E9486
:100D3000B50A32C080913802882319F0CE010E9492
:100D4000A10AA701193148F068E1CE010E944B06C3
:100D5000185188E1E80EF11CF4CF612FCE010E94FA
:100D60004B0618C08E898F3F11F488E78E8BE8857B
:100D7000F9859701412F64E1CE01DF91CF911F9159
:100D8000FF90EF90099480913802882319F0CE01EA
:100D90000E94A10A1092380281E001C080E0DF9138
:100DA000CF911F91FF90EF9008953FB7F8948091F5
:100DB000580290915902A0915A02B0915B0226B557
:100DC000A89B05C02F3F19F00196A11DB11D3FBF83
:100DD000BA2FA92F982F8827820F911DA11DB11D11
:100DE000BC01CD0143E0660F771F881F991F4A950C
:100DF000D1F708951F920F920FB60F9211242F93DF
:100E00003F938F939F93AF93BF93809154029091A0
:100E10005502A0915602B09157023091530226E03C
:100E2000230F2D3720F40296A11DB11D05C029E81E
:100E3000230F0396A11DB11D2093530280935402EA
:100E400090935502A0935602B09357028091580296
:100E500090915902A0915A02B0915B020196A11D96
:100E6000B11D8093580290935902A0935A02B093F7
:100E70005B02BF91AF919F918F913F912F910F9006
:100E80000FBE0F901F901895DC011A96ED91FC9102
:100E90001B9720E030E00994EF92FF920F931F938D
:100EA000CF93DF93EC01142F79016D30A9F118F481
:100EB0006B3039F15FC06E3009F441C06F3009F01A
:100EC00059C00E942C0AF70183810C89F8E08F9F9A
:100ED000000D112460E4CE010E94970A602F6295F4
:100EE0006F706061CE010E94970A602F6F70CE0113
:100EF0000E948D0AF7016481606BCE010E948D0A09
:100F000029C0411103C069E171E002C064E171E0F0
:100F1000CE010E943F0A71C0411108C06DE071E02E
:100F20000E943F0AE881F981828907C066E071E08A
:100F30000E943F0AE881F98183898C8B5EC00E9400
:100F40002C0A61E8CE010E94970A612FCE010E940F
:100F50008D0A0CC0F701408151816281660F660FD6
:100F6000660FCE010E94360A1150A1F7CE010E94F1
:100F7000220A43C0693031F483E591E09983888384
:100F80001C8A3BC06A30B9F5EA85FB8520E030E079
:100F900040E068E2CE010995EE81FF8120E030E07B
:100FA00040E064E1CE01099541E06BE4CE010E948E
:100FB0004407E881F981448169E2CE010E94440737
:100FC00040E06BE4CE010E944407E881F98144814E
:100FD00069E2CE010E94440741E06BE4CE010E9429
:100FE0004407E881F981458169E2CE010E94440706
:100FF0006EE171E08DCF80E001C081E0DF91CF91A3
:101000001F910F91FF90EF900895FC016623D9F195
:101010006A30C9F1818D811124C06C3F20F085E0D8
:10102000818F61701AC0683F20F084E0818F637007
:1010300014C0603F20F083E0818F67700EC0603E77
:1010400020F082E0818F6F7008C0603C20F081E06A
:10105000818F6F7102C070E01BC070E0738B628B78
:1010600015C08150818F2289338996E0220F331F6A
:101070009A95E1F76F73A901462BBA01738B628BC6
:10108000811104C005C06FEF7FEF02C06EEF7FEFEC
:10109000CB010895662329F06A3019F0862F90E07D
:1010A00008958FEF9FEF08951F93CF93DF93EC0187
:1010B000122FA889B989FD01349131969491319606
:1010C00084913196A491631710F0961720F4FA01D9
:1010D000CA01089629C070E0631B71098A9FE02D40
:1010E0001124E69F9001E79F300D1124210F311D3F
:1010F00083E0220F331F8A95E1F7C9010496DA01D4
:10110000245F3F4FE889F989E80FF91FE491ED93D7
:10111000019682179307B1F78D89882381F0FA0130
:101120009A01285F3F4F05C01192E817F907E1F7D0
:10113000F3CF808180958193E217F307D1F7DF9198
:10114000CF911F910895CF92DF92EF92FF920F936C
:101150001F93CF93DF936C01EB017B01E40EF51E2F
:1011600000E010E0CE15DF0561F06991D601ED9148
:10117000FC910190F081E02DC6010995080F191F1F
:10118000F1CFC801DF91CF911F910F91FF90EF90A8
:10119000DF90CF900895CF93DF93EC01862F6831D5
:1011A00009F452C060F4B901843179F0873109F053
:1011B000C1C050E08DEC92E00E94C30C43C0693185
:1011C00009F465C06032F1F1B5C08C859D85AE85AE
:1011D000BF85892B8A2B8B2B71F4E881F981A5853A
:1011E000B0E020EA36E841E050E00E94E9176C8761
:1011F0007D878E879F871092A5021092A40210927D
:10120000A1021092A2021092A70281E08093A9028B
:101210001092A80261E082E10E94E70F61E083E1A1
:101220000E94E70F8091B9008E7F8093B900809172
:10123000B9008D7F8093B90080E28093B80085E487
:101240008093BC0081E077C02C853D854E855F850D
:1012500060E072E18AE790E00E94C717DA01C901F5
:101260004097A109B109B695A79597958795809361
:10127000B8008E8990E09595879591E09093A302B0
:10128000809380021092A1021092A202DBCF2091E3
:10129000A202213208F047C08091A7028111FCCF41
:1012A0008091800292E09093A70291E09093A9022E
:1012B0009FEF9093A6021092CB022093CA02E1E81E
:1012C000F2E0AAEAB2E090E0291721F031913D93D3
:1012D0009F5FFACF1092CC029091CC02880F892B9D
:1012E0008093CC028091A802813061F41092A80210
:1012F0008091CC028093BB008091BC0083FDF8CF2D
:1013000085EC01C085EE8093BC008091A7028230FD
:10131000E1F38091A6028F3F31F08091A6028032E6
:1013200011F08091A6021092A1021092A2021092D6
:10133000A30288CF80E0DF91CF9108950F931F9390
:10134000CF93DF93EC01862F642F8C3268F48A32BE
:1013500008F072C0883281F08932D9F570E080E0FF
:1013600090E00E946D1068C08D32D1F090F194EB46
:10137000980F9230E8F02DC08E01015E1F4FD0E033
:10138000F80181918F018F3F39F0D03110F461E085
:1013900001C062E00E941610DF5FD63189F74CC0B1
:1013A000433008F049C086E090E00197F1F744C06F
:1013B0008F73C80FD11D411107C061E08F8D0E944E
:1013C000161060E08F8D11C062E08F8D0E941610A4
:1013D00033C0803478F1982F9F73FE01E90FF11D1F
:1013E000878D8F3F49F1903118F40E94E70F24C098
:1013F000282F30E0F901EC56F44F8491F901E453C1
:10140000F44F0491F901EB54F44F1491112379F046
:1014100081110E94BE0FE12FF0E0EE0FFF1FE55596
:10142000F44FA591B491EC91E02381E009F480E0C0
:101430008A8F02C080E001C081E0DF91CF911F91CF
:101440000F910895DC011696ED91FC91179720E01D
:1014500030E040E069E10994DC011696ED91FC91E1
:10146000179720E030E040E068E109949A01DC0140
:101470001696ED91FC911797462F67E10994EF922C
:10148000FF920F931F93CF93DF931F92CDB7DEB7D9
:101490007C018B01D8016C916731E1F078F4653102
:1014A000A0F1F80141814983D7011696ED91FC9195
:1014B000179720E030E0C701099524C06A31A8F0F1
:1014C0006E3F19F5F8014181498369E2C7010E9425
:1014D000440718C0F80181818983AE014F5F5F4FD7
:1014E00061E0C7010E94360A0DC00F5F1F4FD70190
:1014F0001696ED91FC91179720E030E040E0C7018F
:101500000995C8CF0E5F1F4FC5CF0F90DF91CF91C8
:101510001F910F91FF90EF900895462FDC011696D2
:10152000ED91FC91179720E030E066E10994462F99
:10153000DC011696ED91FC91179720E030E065E113
:101540000994DC011896ED91FC91199720E030E0A8
:1015500040E069E10994DC011896ED91FC9119973E
:1015600020E030E040E068E10994CF93DF931F92E0
:10157000CDB7DEB76983BE016F5F7F4F0E948B0ED0
:101580000F90DF91CF9108954F925F926F927F926B
:101590008F929F92AF92BF92CF92DF92EF92FF9283
:1015A0000F931F93CF93DF93CDB7DEB72D970FB671
:1015B000F894DEBF0FBECDBF7C01C62ED42EB22E56
:1015C000DC0150968D919C915197FC0132961491BB
:1015D00031960491512E560E040F81E0860F581655
:1015E00008F411E0712CFE0131964F01442443941C
:1015F000672CAC2C262DA4016B2DC7010E9454082A
:10160000AC86DD864B869A868986D7011496ED9145
:10161000FC9115979E01275F3F4F41E06FE0C701A6
:1016200009956394A394A51428F3D394710ED0164E
:10163000F8F22D960FB6F894DEBF0FBECDBFDF9146
:10164000CF911F910F91FF90EF90DF90CF90BF90BF
:10165000AF909F908F907F906F905F904F90089584
:101660001F93CF93DF93DC015496ED91FC91559736
:101670006A3061F43396E491DA968C91DA97E80F48
:10168000DA96EC93DA97D9961C920CC0262FEC01CF
:10169000329614914AAD69AD04960E94C40AE9AD30
:1016A000E10FE9AF81E090E0DF91CF911F910895C4
:1016B000DC0180E0615098F02D91982F9227E92F5E
:1016C000EF70F0E0E05AF44F249192959F70E92F6B
:1016D000F0E0E059F44FE491822F8E27EBCF08958C
:1016E000FC0190810180F281E02DF8948181892BA9
:1016F00081832281892F809528232283A2E0B0E074
:101700001197F1F7218182238183A0E1B0E0119745
:10171000F1F780817894E6E6F0E03197F1F79823CD
:1017200081E009F480E00895FC0190810180F2815C
:10173000E02D892F809560FF12C0F89422818223CA
:1017400082838181892B8183A0E1B0E01197F1F739
:101750008281982B928378948AE690E011C0F89465
:101760002281822382838181892B8183AEE7B0E04D
:101770001197F1F78281982B9283789486E090E01C
:101780000197F1F70895DF92EF92FF920F931F9365
:10179000CF93DF93EC01D62EE42E08E010E0FF2477
:1017A000F39461E08D2D8F2109F460E0CE010E9459
:1017B000940BFF0C01501109A1F7E11010C0F8942F
:1017C000E981FA8191818881809589238183E981EA
:1017D000FA81928188818095892382837894DF9130
:1017E000CF911F910F91FF90EF90DF900895EF92AE
:1017F000FF920F931F93CF93DF938C017B0140E007
:1018000065E50E94C30BE70188E0E80EF11C6991D1
:1018100040E0C8010E94C30BCE15DF05C1F7DF9180
:10182000CF911F910F91FF90EF900895DC012C91C3
:101830001196ED91FC911297F8948181922F9095D9
:101840008923818378948DE7815009F13081322397
:10185000D9F3F8948281892382838181822B8183C9
:101860007894ACEBB3E01197F1F7F8948181982369
:10187000918388E890E00197F1F78081282381E047
:1018800009F080E07894E0E3F3E03197F1F7089510
:101890001F93CF93DF9300D000D01F92CDB7DEB758
:1018A0001C8221E02B839A838983E091F102F091DD
:1018B000F20211891D82A091F102B091F202E09131
:1018C000F502F091F6029E012F5F3F4F50964C912A
:1018D0006FE081EF92E009958D818F5F8D83811795
:1018E00050F30F900F900F900F900F90DF91CF91CA
:1018F0001F91089585ED8093BC008091BC0084FD0C
:10190000FCCF1092A7020895613298F42091A702AB
:10191000243089F460934803282FA8E2B3E0FC0147
:101920008E2F821B861718F481918D93F9CF80E05A
:10193000089581E0089582E00895089581E090E09F
:101940003091A5022091A402321710F480E090E0BB
:1019500091958195910908958091A5029091A40295
:10196000891730F48F5F8093A50280E090E008959E
:101970008FEF9FEF08958091A40290E02091A5023F
:10198000821B91090895CF92DF92EF92FF920F93FD
:101990001F93CF93DF937C01CB018A012091A30297
:1019A000222389F0EB016B01C40ED51ECC15DD0599
:1019B00069F06991D701ED91FC910190F081E02DE2
:1019C000C7010995F3CF642F0E94840CC801DF91F1
:1019D000CF911F910F91FF90EF90DF90CF900895DE
:1019E000CF93DF931F92CDB7DEB769832091A30217
:1019F0002223D1F02091A202203240F021E030E0F9
:101A0000FC013383228380E090E015C08091A10225
:101A1000E82FF0E0EF57FD4F998190838F5F80931F
:101A2000A1028093A20205C061E0CE0101960E944E
:101A3000840C81E090E00F90DF91CF910895CF93D7
:101A4000DF93CDB7DEB728970FB6F894DEBF0FBE91
:101A5000CDBFCE01019628E0FC0111922A95E9F74D
:101A60000E94480C28960FB6F894DEBF0FBECDBF7B
:101A7000DF91CF910895EF92FF920F931F93CF9331
:101A8000DF93F82EE62EE0910103F09102033296E7
:101A9000C49110920A038A01D0E0F80161918F018C
:101AA000E091F302F091F40281EF92E009958F3F0B
:101AB000FFEF9F0771F08E3F2FEF920771F3282FF2
:101AC0004E2D6F2D81EF92E00E94C40AFC0EDF5F65
:101AD000E4CF8D2FDF91CF911F910F91FF90EF9069
:101AE00008952AE438E03093F4022093F3020C9432
:101AF0003B0DAF92BF92CF92DF92EF92FF920F9386
:101B00001F93CF93DF938B01BC018091DF029091F3
:101B1000E0020E94F70B40E06EEB8091DF029091B3
:101B2000E0020E94C30BE801680189E0C80ED11CE5
:101B3000A090DF02B090E00288E0E82EF12C10E0E7
:101B400001E0C5010E94700B8111102B000F81E094
:101B5000E81AF108B1F71993CC16DD0649F7809120
:101B6000DF029091E0020E94160C91E0813009F0B2
:101B700090E0892FDF91CF911F910F91FF90EF900F
:101B8000DF90CF90BF90AF9008950F931F93CF93A6
:101B9000DF93CDB7DEB729970FB6F894DEBF0FBE3F
:101BA000CDBF8C018091DF029091E0020E94160C63
:101BB000882309F1BE016F5F7F4FC8010E94790D34
:101BC0008823C9F068E0CE0101960E94580B9985E0
:101BD000891311C08D818F3361F020F48F3159F456
:101BE00089E00CC08F3519F08F3739F004C08BE0D5
:101BF00005C08AE003C080E001C08CE029960FB6E2
:101C0000F894DEBF0FBECDBFDF91CF911F910F9132
:101C10000895BF92CF92DF92EF92FF920F931F939E
:101C2000CF93DF93EC016B018D85811105C0CE014F
:101C30000E94160C811105C01B861D861C8680E043
:101C400060C040E060EFCE010E94C30B01E0E12CD8
:101C5000B12C11E0CE010E94700BF82ECE010E9433
:101C6000700B91E0F91203C08130B1F434C02E2D15
:101C700030E0F8121BC08B85181738F4FE01E20F14
:101C8000F31F8381802341F402C0811729F0F12CD6
:101C9000193058F41C8709C0FE01EE0DF11D838137
:101CA000802B8383FF24F39409C0B12EFE01E20F41
:101CB000F31F9381802F8095892383836F2DCE011D
:101CC0000E94940B1F5F000F11F4E39401E087E082
:101CD0008E1508F0BFCF113408F4AECFBB86B1101B
:101CE00002C081E08D878B81882309F4A5CFDE01B6
:101CF0001396F6012B968D918193CA17DB07D9F7BE
:101D000081E0DF91CF911F910F91FF90EF90DF90D5
:101D1000CF90BF9008959B01DC011896ED91FC9146
:101D2000199741E067E109941F920F920FB60F9245
:101D300011242F933F934F935F936F937F938F93D0
:101D40009F93AF93BF93EF93FF938091B900887FE8
:101D5000803609F49CC068F5883209F45BC090F4C1
:101D6000803109F454C038F4882309F4F2C0883073
:101D700009F44DC0F2C0883109F44CC0803209F436
:101D80005DC0EBC0803409F468C048F4803309F4C6
:101D900055C0883309F0E1C08093A602D4C08035D5
:101DA00009F44FC0883509F45DC0883409F0D5C006
:101DB000D2C0883909F4C3C0A8F4883709F467C0D1
:101DC00038F4883609F463C0803709F460C0C5C0B0
:101DD000883809F4B4C0803909F45FC0803809F04C
:101DE000BCC05BC0803B09F484C038F4803A09F47D
:101DF00066C0883A09F47DC0B0C0803C09F4A3C035
:101E0000883C09F4A0C0883B09F486C0A6C0809134
:101E1000CC0210C09091CB028091CA02981770F545
:101E2000E091CB0281E08E0F8093CB02F0E0E6558B
:101E3000FD4F80818093BB0085EC82C08093A60219
:101E40008AC0E091CB0281E08E0F8093CB0280911B
:101E5000BB00F0E0E655FD4F80839091CB0280916E
:101E6000CA026AC0E091CB0281E08E0F8093CB0260
:101E70008091BB00F0E0E655FD4F80838091A90280
:101E8000811169C081E08093A80284EA5DC083E08B
:101E90008093A70210926A03CFCF80916A038032A9
:101EA00008F04DC0E0916A0381E08E0F80936A03D1
:101EB0008091BB00F0E0E65BFC4F8083BDCF85ECFA
:101EC0008093BC001092A70280916A03803230F4A4
:101ED000E0916A03F0E0E65BFC4F108260916A03D8
:101EE00070E08AE493E0E0E0F0E0099510926A0384
:101EF00034C084E08093A7021092490310924803F3
:101F0000E0E0F0E0099580914803811105C081E08F
:101F10008093480310922803E091490381E08E0FDB
:101F200080934903F0E0E85DFC4F80818093BB0023
:101F30009091490380914803981708F47DCF85E874
:101F40008093BC000AC085EC8093BC001092A7026D
:101F500004C01092A6020E947A0CFF91EF91BF91EB
:101F6000AF919F918F917F916F915F914F913F9131
:101F70002F910F900FBE0F901F901895843081F015
:101F800028F4823099F08330A1F008958830A9F0C8
:101F90008930B9F08530D1F4809180008F7D03C005
:101FA000809180008F7780938000089584B58F772B
:101FB00002C084B58F7D84BD08958091B0008F7775
:101FC00003C08091B0008F7D8093B00008951F936F
:101FD000CF93DF93282F30E0F901EC56F44F849132
:101FE000F901E453F44FD491F901EB54F44FC49147
:101FF000CC23C1F0162F81110E94BE0FEC2FF0E010
:10200000EE0FFF1FE657F44FA591B4919FB7F894D8
:10201000111104C08C91D095D82302C0EC91DE2B15
:10202000DC939FBFDF91CF911F910895CF93DF93F2
:1020300090E0FC01E453F44F2491FC01EB54F44F85
:102040008491882361F190E0880F991FFC01E0588A
:10205000F44FC591D491FC01E657F44FA591B4918A
:10206000611109C09FB7F8948881209582238883E5
:10207000EC912E230BC0623061F49FB7F8948881F5
:10208000322F309583238883EC912E2B2C939FBF86
:1020900006C08FB7F894E8812E2B28838FBFDF917D
:1020A000CF910895883028F08E3010F08E5001C006
:1020B0008FEF8770806480937C0080917A008064C9
:1020C00080937A0080917A0086FDFCCF8091780021
:1020D0002091790090E0922B08958F929F92AF9279
:1020E000BF92CF92DF92EF92FF926B017C010E9430
:1020F000D5064B015C01C114D104E104F104F1F0F7
:102100000E94D506DC01CB0188199909AA09BB09EF
:10211000883E9340A105B10570F321E0C21AD108B1
:10212000E108F10888EE880E83E0981EA11CB11C1E
:10213000C114D104E104F10419F7DDCFFF90EF9051
:10214000DF90CF90BF90AF909F908F900895CF93E6
:10215000DF93CDB7DEB765970FB6F894DEBF0FBE3D
:10216000CDBF789484B5826084BD84B5816084BD20
:1021700085B5826085BD85B5816085BD80916E0025
:10218000816080936E001092810080918100826056
:102190008093810080918100816080938100809193
:1021A00080008160809380008091B1008460809382
:1021B000B1008091B00081608093B00080917A007E
:1021C000846080937A0080917A00826080937A00A4
:1021D00080917A008E7F80937A0080917A00806867
:1021E00080937A001092C100E091F502F091F6021E
:1021F00020E030E040E06AE081EF92E009950E9443
:102200001F0DE091F502F091F60220E030E040E091
:102210006BE081EF92E0099561E089E00E94161081
:1022200060E089E00E94E70F61E088E00E941610FC
:1022300061E088E00E94E70F60E08EE00E941610E7
:1022400061E081E10E94161061E08FE00E941610AB
:1022500060E08FE00E94E70F64E670E080E090E0CD
:102260000E946D10E091DF02F091E0021386158666
:102270001486DF011B9633961E92AE17BF07E1F757
:102280001092DD021092DE0201E0BE016F5F7F4F0F
:102290008091DF029091E0020E94090E882309F4E8
:1022A00065C067E0CE0101960E94580B988589139E
:1022B000ECCF8091D902811127C08091DF029091EB
:1022C000E0020E94160CBE016F5F7F4F8091DF021B
:1022D0009091E0020E94F70B40E064EB8091DF02F6
:1022E0009091E0020E94C30B8091DF029091E00286
:1022F0000E94700B182F8091DF029091E0020E94E3
:10230000160C112309F43FC11091DA028981803142
:1023100009F492C2CE0101960E94C50D811718F4EE
:102320008091DA0209C08981803111F48CE004C007
:10233000CE0101960E94C50D8093DA028091DD02E4
:102340008F5F8093DD028981883209F41FC138F4E0
:10235000803109F41BC1823209F097CF17C18B334A
:1023600009F414C1823409F090CF10C164E670E022
:1023700080E090E00E946D10809100019091010139
:102380008896909301018093000187E693E09093F3
:1023900002038093010349E851E060E082E00E947B
:1023A000710D46E951E061E081E00E94710D45EA5E
:1023B00051E062E080E00E94710D82E691E090932E
:1023C00002038093010346EB51E064E081E00E9448
:1023D000710D45EC51E065E082E00E94710D68E806
:1023E00073E180E090E00E946D100E941F0D10923A
:1023F00026031092270305E010E0B2E6EB2EB1E0D1
:10240000FB2EF0920203E092010342ED51E060E006
:1024100080E00E94710D43EE51E062E082E00E9494
:10242000710D41EF51E064E080E00E94710D42E0E7
:1024300052E066E080E00E94710D68EE73E080E09B
:1024400090E00E946D100E941F0D109226031092C2
:10245000270368EC70E080E090E00E946D1001506E
:10246000110979F6E0E02E2EE0E03E2EFCE68F2EFC
:10247000F5E09F2EA5E0AA2EA8E0BA2E8091DF02FB
:102480009091E0020E94160C40E06CEC8091DF021B
:102490009091E0020E94C30B4091D90264E48091C4
:1024A000DF029091E0020E94C30B8091DB0288233F
:1024B00009F449C0E091DA02E950E33040F4F0E079
:1024C000EE0FFF1FE559FE4F6081718102C06EEE75
:1024D00072E08091DC02882381F18091D902811120
:1024E0002CC08FB7F89440905402509055026090E1
:1024F0005602709057028FBF6B01770FEE08FF08EE
:102500008091DF029091E0020E94700B8130D9F03F
:102510002FB7F8948091540290915502A0915602E1
:10252000B09157022FBF8C199D09AE09BF098415C0
:102530009505A605B70520F306C0072E000C880BED
:10254000990B0E946D10E091DF02F091E00213867A
:1025500015861486DF011B96CF0103961E92A817DD
:10256000B907E1F7BE01665F7F4FCF010E94090EF8
:10257000882391F067E0CE010A960E94580B998952
:1025800089130AC05DC10093D902BECE8091DE02DC
:102590008F5F8093DE0279CEC12CD12C8EEFE82E96
:1025A00082ECF82EC0920201D0920301E092040165
:1025B000F092050161E081E10E94E70F8EE00E9448
:1025C00052108EE00E945210BC01990F880B990B9B
:1025D0000E9434192B013C016093390270933A0236
:1025E00080933B0290933C0260E081E10E94E70F00
:1025F00020E030E040EA50E4C301B2010E94C0197B
:1026000020E030E040E85AE30E94C0192B013C0171
:102610006091000170910101072E000C880B990B4D
:102620000E943419A30192010E94C0196A8B7B8B0E
:102630008C8B9D8BA301920160E070E080EA90E4B6
:102640000E941D189B01AC016A897B898C899D8938
:102650000E948A1820E030E040E252E40E941D18F7
:102660009B01AC0160934F02709350028093510222
:10267000909352026CEE71E588E390E40E948A1810
:102680002B013C01A701960160E070E088EC91E429
:102690000E941D1822E537E248EF5FE30E94C0194F
:1026A00020E030E048EC52E40E948A189B01AC0123
:1026B00060E070E080E89FE30E941D189B01AC0180
:1026C000C301B2010E948A186093410270934202D2
:1026D000809343029093440220E030E04AE754E4C0
:1026E0000E94C0192DEC3CEC4CE05FE30E94C01945
:1026F0000E94FC18CB0160E177E20E94B317072E1D
:10270000000C880B990B0E94341960933D02709362
:102710003E0280933F029093400290920203809287
:10272000010343E152E060E080E00E94710D60919E
:102730004F0270915002809151029091520205E433
:1027400012E020E046E00E942A15A80160E084E043
:102750000E94710D47E152E060E08CE00E94710D33
:102760004CE152E062E080E00E94710D6091410214
:1027700070914202809143029091440221E043E033
:102780000E942A15A80162E085E00E94710D41E2D5
:1027900052E062E08BE00E94710D47E252E064E09B
:1027A00080E00E94710D60913D0270913E02809127
:1027B0003F029091400226E042E00E942A15A801C3
:1027C00064E085E00E94710DB092F402A092F302E1
:1027D0004CE252E064E08FE00E943B0D4EE252E09A
:1027E00066E080E00E94710D60910201709103012A
:1027F000809104019091050121E042E00E942A1598
:10280000A80166E086E00E94710DB092F402A092E9
:10281000F30244E352E066E08AE00E943B0D68E880
:1028200073E180E090E00E946D102114310409F4FE
:1028300025CE0E94000022CE1D3008F071CD76CD4D
:102840008091DF029091E0020E94160C882309F427
:1028500053C0BE016F5F7F4FCE010A960E94790D73
:10286000882309F449C068E0CE0101960E94580B04
:102870009985891341C02A8130E0C901982F8827A2
:10288000990F990F990F698128E0629FB001112477
:102890009C01262B372B8A858031C9F4688570E02E
:1028A0008F81AB01481B5109CA019695982F882743
:1028B000979587950E94B31760517109207F53E067
:1028C000220F331F5A95E1F7620F731F01C0B90140
:1028D000613854EE75070CF45FCE072E000C880BA0
:1028E000990B0E94341920E030E040E05CE30E9444
:1028F000C0196B017C0156CE60E874EEE9CFCF932E
:102900001092D0021092CF0288EE93E0A0E0B0E0E7
:102910008093D1029093D202A093D302B093D402B9
:1029200085E791E09093CE028093CD021092F00261
:102930001092EF02109226031092270385E891E08F
:102940009093EE028093ED021092F2021092F10247
:10295000109206031092090310920A031092FD02CE
:102960001092FE021092FF02109200038FEF8093EC
:10297000070380930C03E0E1F3E086E293E02FEF9E
:10298000CFEF21938E179F07D9F78CE497E09093B0
:10299000F6028093F50288E696E09093F802809321
:1029A000F7028BEC98E09093FA028093F9028EE99B
:1029B00099E09093FC028093FB0220E030E040E03D
:1029C00069E081EF92E00E944C07C0931B03C09323
:1029D0001C03C0931D0360E08AE00E941610E6ED20
:1029E000FBE0E491E0936B03EFEBFBE0E491F0E0BC
:1029F000EE0FFF1FE555F44F8591949190936D0371
:102A000080936C03109276031092780310927703F0
:102A1000E6E7F3E08EE693E012928E179F07E1F768
:102A20008BE693E09093E0028093DF021092DD0248
:102A30001092DE021092D90289E08093DA0281E0DE
:102A40008093DB028093DC021092EC021092EB0286
:102A5000CF910895EF920F931F93CF93DF93E801E7
:102A600047FD02C034E001C034E1042E000C550BD8
:102A700057FF03C0519541955109E32E022F242F92
:102A8000AE010E944A15CE01DF91CF911F910F91A7
:102A9000EF900895A9E0B0E0E0E5F5E10C9482172D
:102AA0006A01122FB02E2BE3201720F0FF24F3949D
:102AB000F00E02C02CE3F22E0F2D27E0AE014F5F87
:102AC0005F4F0E94A416BC014981842F8970813018
:102AD00031F0E1FC06C0E0FE06C090E205C09DE2D8
:102AE00003C09BE201C090E05E2D507143FF3CC0EB
:102AF000911102C083E001C084E0811718F4212FF6
:102B0000281B01C020E051110BC0F601822F30E2DA
:102B1000882319F031938150FBCFC20ED11C20E0E5
:102B2000992329F0D6019C93F60131966F01C601D5
:102B30000396E2FE0AC03EE4D6013C9341E41196BE
:102B40004C93119712963C9306C03EE6F6013083F3
:102B500041E641833283FC01322F40E2332309F402
:102B600042C041933150FACF42FF44C0911102C09C
:102B700083E001C084E0811718F4212F281B01C0D5
:102B800020E051110BC0F601822F30E2882319F0AA
:102B900031938150FBCFC20ED11C20E0992329F044
:102BA000D6019C93F60131966F01C6010396E2FEB1
:102BB0000BC039E4D6013C933EE411963C93119747
:102BC00036E412963C9307C039E6F60130833EE6C0
:102BD000318336E63283FC01322F40E2332319F091
:102BE00041933150FBCFFC01E20FF11D10828EEFBB
:102BF0009FEFA6C021E030E0911102C020E030E05C
:102C0000161617061CF4FB01319602C0E1E0F0E055
:102C10002E0F3F1FBB2021F0EB2DF0E0319602C0BC
:102C2000E0E0F0E02E0F3F1FE12FF0E02E173F070E
:102C30001CF4121B212F01C020E08E2D887159F445
:102C4000F601822F30E2882319F031938150FBCFB7
:102C5000C20ED11C20E0992329F0D6019C93F601E5
:102C600031966F0151110BC0F601822F90E388233A
:102C700019F091938150FBCFC20ED11C20E00F2D93
:102C8000060F9A81342F307144FF03C0913309F449
:102C90000150101624F4093018F008E001C001E0DA
:102CA000AB0177FF02C040E050E0FB01E41BF50BF5
:102CB000A1E0B0E0AC0FBD1FEA0FFB1F8EE2A82E13
:102CC0004B01801A91080B2D10E011950195110907
:102CD0004F3FBFEF5B0721F4D601AC9211966D0117
:102CE000641775072CF08416950614F4818101C0D1
:102CF00080E3415051093196D60111967D0140176C
:102D0000510724F0D6018C936701E2CF6417750751
:102D100039F4963320F4953319F4311101C081E36D
:102D2000F6018083F701822F90E2882319F09193B6
:102D30008150FBCFF701E20FF11D108280E090E09F
:102D40002996ECE00C949E17283008F027E03327F2
:102D5000DA01990F311D87FD9160009661057105BB
:102D600039F432602E5F3D9330E32A95E1F7089500
:102D70009F3F30F080387105610509F03C5F3C5F92
:102D80003D93913008F08068911DDF93CF931F939E
:102D90000F93FF92EF92192F987F9695E92F9695B2
:102DA0009695E90FFF27EE53FF4F99273327EE241F
:102DB000FF24A701E70105900894079428F4360F33
:102DC000E71EF81E491F511D660F771F881F991FA8
:102DD0000694A1F70590079428F4E70EF81E491F02
:102DE000561FC11D770F881F991F661F0694A1F7F4
:102DF0000590079428F4F80E491F561FC71FD11DD0
:102E0000880F991F661F771F0694A1F705900794F6
:102E100020F4490F561FC71FD81F990F661F771F31
:102E2000881F0694A9F784911095177041F0D695E4
:102E3000C79557954795F794E7941A95C1F7E8E633
:102E4000F0E06894159015913591659195910590F4
:102E50007FE27395E118F10A430B560BC90BD009B9
:102E6000C0F7E10CF11E431F561FC91FD01D7EF491
:102E7000703311F48A95E6CFE894015030F0080FD2
:102E80000AF40027021708F4202F2395022F7A3323
:102E900028F079E37D932A95E9F710C07D932A9570
:102EA00089F6069497956795379517951794E118C5
:102EB000F10A430B560BC90BD00998F023957E916C
:102EC00073957A3308F070E37C932013B8F77E9102
:102ED00070617D9330F0839571E37D9370E32A9563
:102EE000E1F71124EF90FF900F911F91CF91DF91A7
:102EF000992787FD909508952F923F924F925F9268
:102F00006F927F928F929F92AF92BF92CF92DF92F9
:102F1000EF92FF920F931F93CF93DF93CDB7DEB75E
:102F2000CA1BDB0B0FB6F894DEBF0FBECDBF0994F2
:102F30002A88398848885F846E847D848C849B8449
:102F4000AA84B984C884DF80EE80FD800C811B8157
:102F5000AA81B981CE0FD11D0FB6F894DEBF0FBE86
:102F6000CDBFED01089597FB072E16F4009407D00E
:102F700077FD09D00E94F41707FC05D03EF4909528
:102F800081959F4F0895709561957F4F0895A1E2B7
:102F90001A2EAA1BBB1BFD010DC0AA1FBB1FEE1FD3
:102FA000FF1FA217B307E407F50720F0A21BB30B1E
:102FB000E40BF50B661F771F881F991F1A9469F79A
:102FC00060957095809590959B01AC01BD01CF01F6
:102FD00008950E940E18A59F900DB49F900DA49F78
:102FE000800D911D11240895AA1BBB1B51E107C040
:102FF000AA1FBB1FA617B70710F0A61BB70B881F89
:10300000991F5A95A9F780959095BC01CD01089517
:10301000EE0FFF1F0590F491E02D0994A29FB001DF
:10302000B39FC001A39F700D811D1124911DB29FFC
:10303000700D811D1124911D08955058BB27AA279A
:103040000E9435180C9486190E94781938F00E9455
:103050007F1920F039F49F3F19F426F40C94751968
:103060000EF4E095E7FB0C946F19E92F0E94971975
:1030700058F3BA17620773078407950720F079F4AD
:10308000A6F50C94B9190EF4E0950B2EBA2FA02DCD
:103090000B01B90190010C01CA01A0011124FF2705
:1030A000591B99F0593F50F4503E68F11A16F04000
:1030B000A22F232F342F4427585FF3CF46953795FF
:1030C0002795A795F0405395C9F77EF41F16BA0BC4
:1030D000620B730B840BBAF09150A1F0FF0FBB1F72
:1030E000661F771F881FC2F70EC0BA0F621F731FBB
:1030F000841F48F4879577956795B795F7959E3F18
:1031000008F0B0CF9395880F08F09927EE0F9795A8
:10311000879508950E949E180C9486190E947F1925
:1031200058F00E94781940F029F45F3F29F00C9480
:103130006F1951110C94BA190C9475190E949719B2
:1031400068F39923B1F3552391F3951B550BBB27D6
:10315000AA2762177307840738F09F5F5F4F220F1B
:10316000331F441FAA1FA9F335D00E2E3AF0E0E812
:1031700032D091505040E695001CCAF72BD0FE2F5C
:1031800029D0660F771F881FBB1F261737074807F0
:10319000AB07B0E809F0BB0B802DBF01FF279358A8
:1031A0005F4F3AF09E3F510578F00C946F190C94E4
:1031B000BA195F3FE4F3983ED4F386957795679507
:1031C000B795F7959F5FC9F7880F911D96958795DD
:1031D00097F90895E1E0660F771F881FBB1F6217FC
:1031E00073078407BA0720F0621B730B840BBA0BBA
:1031F000EE1F88F7E09508950E9403196894B111B5
:103200000C94BA1908950E949F1988F09F5798F05E
:10321000B92F9927B751B0F0E1F0660F771F881FDB
:10322000991F1AF0BA95C9F714C0B13091F00E94F5
:10323000B919B1E008950C94B919672F782F882730
:10324000B85F39F0B93FCCF3869577956795B3951C
:10325000D9F73EF490958095709561957F4F8F4F8B
:103260009F4F0895E89409C097FB3EF49095809590
:10327000709561957F4F8F4F9F4F9923A9F0F92F3C
:1032800096E9BB279395F695879577956795B795BA
:10329000F111F8CFFAF4BB0F11F460FF1BC06F5FA0
:1032A0007F4F8F4F9F4F16C0882311F096E911C0B2
:1032B000772321F09EE8872F762F05C0662371F0D3
:1032C00096E8862F70E060E02AF09A95660F771FE7
:1032D000881FDAF7880F9695879597F9089597F9DB
:1032E0009F6780E870E060E008959FEF80EC0895AC
:1032F00000240A94161617061806090608950024D5
:103300000A9412161306140605060895092E03944E
:10331000000C11F4882352F0BB0F40F4BF2B11F4C2
:1033200060FF04C06F5F7F4F8F4F9F4F089557FD21
:103330009058440F551F59F05F3F71F04795880F23
:1033400097FB991F61F09F3F79F0879508951216BA
:1033500013061406551FF2CF4695F1DF08C0161666
:1033600017061806991FF1CF869571056105089417
:103370000895E894BB2766277727CB0197F908952E
:103380000E94D3190C9486190E94781938F00E9473
:103390007F1920F0952311F00C946F190C94751976
:1033A00011240C94BA190E94971970F3959FC1F3D8
:1033B000950F50E0551F629FF001729FBB27F00DE3
:1033C000B11D639FAA27F00DB11DAA1F649F662738
:1033D000B00DA11D661F829F2227B00DA11D621F87
:1033E000739FB00DA11D621F839FA00D611D221F41
:1033F000749F3327A00D611D231F849F600D211D25
:10340000822F762F6A2F11249F5750409AF0F1F0A7
:1034100088234AF0EE0FFF1FBB1F661F771F881F10
:1034200091505040A9F79E3F510580F00C946F19C0
:103430000C94BA195F3FE4F3983ED4F386957795E0
:103440006795B795F795E7959F5FC1F7FE2B880FB6
:10345000911D9695879597F9089581E090E0F894ED
:083460000C94321AF894FFCF1E
:10346800D007000020411815A015C019FF1815A194
:1034780015C819FF1815AE19FF1815AF19FF18153B
:10348800AE15D5168015A8163F15D316001540158C
:103498008D16141520160015A115C815DA16121563
:1034A8008116CF15D916F115DB1640152E15A41562
:1034B800A619FF0001140A6464323200127A00006F
:1034C80004289610080000800040005E00BC0077C9
:1034D8000100000000F00CC30CBB0CAC0C9E0C9D52
:1034E8000C00000000300BA30841524341444941FD
:1034F8002048494748005343484F4F4C20534349BD
:10350800454E4345004F4C594D50494144203230B7
:1035180031392D3230004449474954414C20454304
:1035280020414E440054454D502E2053454E534F94
:1035380052002120212020204E4F544520202021B8
:103548002021004D414B45205355524520544845B4
:1035580000534F4C5554494F4E2049532057454C22
:103568004C004D49584544204245464F5245205548
:1035780053450052633A006F686D73004332353A21
:10358800006D532F636D005444533A002500546571
:083598006D703A00C2B043005F
:00000001FF
