:100000000C94E2060C940A070C940A070C940A0755
:100010000C940A070C940A070C940A070C940A071C
:100020000C940A070C940A070C940A070C940A070C
:100030000C940A070C940A070C940A070C940A07FC
:100040000C9448170C940A070C940A070C940A079E
:100050000C940A070C940A070C940A070C940A07DC
:100060000C94BC130C940A07460B910B400B400BED
:10007000070B3A0B070B070B070B070B070B070BBD
:10008000070B070B070B070B070B070B070B070BE0
:10009000070B070B070B070B070B070B070B070BD0
:1000A000070B070B070B070B070B070B070B070BC0
:1000B000010C010C68140314031403140314031437
:1000C0000314031472140314031403140314031409
:1000D00003140314721403140314031403140314F9
:1000E000031403147A1403140314031403140314E1
:1000F000031403148E1403140314031403140314BD
:10010000031403147A1403140314031403140314C0
:1001100003140314301403140314031403140314FA
:10012000031403143D1403140314031403140314DD
:1001300003140314291403140314031403140314E1
:1001400003140314B9140314031403140314031441
:10015000031403141D1403140314031403140314CD
:100160000314031446140314031403140314031494
:10017000031403145F14031403140314031403146B
:10018000031403145F14031403140314031403145B
:10019000031403145F14031403140314031403144B
:1001A000031403145F14031403140314031403143B
:1001B0000314031414140314031403140314031476
:1001C0000314031419140314031403140314031461
:1001D0000314031414140314031403140314031456
:1001E0000314031419140314031403140314031441
:1001F00003140314991403140314031403140314B1
:1002000003140314DB13031403140314031403145F
:1002100003140314DB13031403140314031403144F
:1002200003140314EE13031403140314031403142C
:1002300003140314B3140314031403140314031456
:1002400003140314B31400407A10F35A00A0724E42
:1002500018090010A5D4E80000E87648170000E46B
:100260000B54020000CA9A3B000000E1F5050000B3
:1002700080969800000040420F000000A086010018
:100280000000102700000000E803000000006400E8
:10029000000000000A000000000001000000000053
:1002A0002C76D888DC674F0823DFC1DFAE59E1B177
:1002B000B796E5E3E453C63AE651997696E8E6C286
:1002C0008426EB898C9B62ED407C6FFCEFBC9C9F8D
:1002D00040F2BAA56FA5F490055A2AF75C936B6CAF
:1002E000F9676DC11BFCE0E40D47FEF520E6B500A3
:1002F000D0ED902E0300943577050080841E080011
:1003000000204E0A000000C80C333333330F986EC0
:1003100012831141EF8D2114893BE65516CFFEE67D
:10032000DB18D1844B381BF77C1D901DA4BBE42443
:10033000203284725E228100C9F124ECA1E53D27C0
:10034000205F010100000000000000000000005FCD
:100350005F000000000707000007070000227F7F02
:10036000227F7F22242E2A6B2A3A120046663018FA
:100370000C66620020765F493F765000000000075F
:100380000700000000001C3E6341000000004163C4
:100390003E1C000004151F0E1F1504000008083E37
:1003A0003E08080000004070300000000008080807
:1003B00008080800000000606000000000603018BD
:1003C0000C0603003E7F4141417F3E000040427FDA
:1003D0007F40400062735949494F460022634949B2
:1003E000497F36001C1E13117F7F1000276745458B
:1003F000457D39003E7F4949497B3200030301793D
:100400007D070300367F4949497F3600266F4949F9
:10041000497F3E00000000363600000000004076B4
:10042000360000000000081C36634100001414145C
:100430001414140000004163361C08000002015926
:10044000590F06003C4299A5A5B9221C7E7F1111C7
:10045000117F7E007F7F4949497F36003E7F4141C1
:10046000416322007F7F4141417F3E007F7F4949B8
:10047000494941007F7F0909090101003E7F41414F
:10048000497B3A007F7F0808087F7F000000007FDB
:100490007F00000020604040407F3F007F7F081CBD
:1004A000366341007F7F4040404040007F7F060C24
:1004B000067F7F007F7F060C187F7F003E7F4141D3
:1004C000417F3E007F7F1111111F0E003E7F414191
:1004D00041FFBE007F7F1111117F6E00266F4949D9
:1004E000497B32000001017F7F0101003F7F4040D6
:1004F000407F3F000F1F3060301F0F007F7F301C98
:10050000307F7F0063771C081C77630000070F783B
:10051000780F07006171795D4F47430000007F7FCE
:10052000414100000003060C18306000000041410A
:100530007F7F000000000C0603060C008080808096
:100540008080808000205F0101000000000000002A
:10055000000000005E000000000000060000060031
:100560000000247E24247E240000246B2A2A6B129F
:1005700000004626100864620000344A4A542050A5
:100580000000000000060000000000003C420000E7
:1005900000000000423C000000002A1C3E1C2A0013
:1005A000000008083E08080000000040300000007D
:1005B00000000808080808080000000040000000CB
:1005C000000040201008040200003C62524A463CF1
:1005D000000040447E404000000064525252524CA1
:1005E000000024424A4A4A340000382422227E2055
:1005F00000002E4A4A4A4A3200003C4A4A4A4A30DF
:100600000000020262120A060000344A4A4A4A34D2
:1006100000000C525252523C000000002400000026
:100620000000004024000000000000081422000028
:100630000000141414141414000000002214080004
:1006400000000402520A0400000018245A5A241818
:1006500000007C121212127C00007E4A4A4A4A3480
:1006600000003C424242422400007E424242423C60
:1006700000007E4A4A4A424200007E0A0A0A0202FA
:1006800000003C424252523400007E080808087EB6
:10069000000000427E420000000020404040403EFA
:1006A00000007E080808146200007E404040404080
:1006B00000007E040808047E00007E040810207EEE
:1006C00000003C424242423C00007E121212120CD8
:1006D00000003C425262423C00007E121212324C38
:1006E0000000244A4A4A4A30000002027E02020008
:1006F00000003E404040403E00001E204040201E82
:1007000000007E201010207E000042241818244291
:10071000000002047804020000004262524A46428D
:100720000000007E42420000000002040810204049
:100730000000000042427E000000000004020400AD
:1007400000808080808080808000207E0102000008
:100750000000000000000000000000000000000099
:1007600000FCFC0000000000000D0D000000003C3B
:100770003C003C3C0000000000000000000060F86D
:10078000F860F8F86000030F0F030F0F030070F814
:10079000C8FC88981000040C081F090F07001C14DF
:1007A0009CE0701C0C000C0E03010E0A0E00C0E051
:1007B0002020E0C00000060F09090F0E0A0000000B
:1007C000003C3C000000000000000000000000C0F1
:1007D000F0380C0400000001070E1810000000049F
:1007E0000C38F0C000000010180E07010000404057
:1007F000C0F0C0404000000603010306000000C036
:10080000C0F0F0C0C00000000003030000000000C2
:100810000000000000000000111F0F070000008012
:100820008080808080000000000000000000000048
:100830000000000000000000040E0E040000000094
:1008400080C060381C000E07010000000000F0F8B6
:100850000C040CF8F00003070C080C070300001050
:1008600018FCFC0000000008080F0F080800181C06
:100870000484C47C38000C0E0B090808080004042A
:10088000446474DC8C00040C0808080F0700C0E006
:100890003018FCFC0000010101010F0F01007C7CFD
:1008A000642424E4C400040C0808080F0700F0F8CE
:1008B000CC4444C48000070F0C08080F0700040450
:1008C00004C4E43C1C0000000F0F00000000B8FC52
:1008D000444444FCB800070F0808080F070078FCE0
:1008E0008484CCFCF800000808080C070300000012
:1008F0002070702000000000040E0E0400000000B4
:100900002070702000000000111F0F070000008001
:10091000C0603018080000000103060C0800004009
:100920004040404040000002020202020200000873
:10093000183060C0800000080C0603010000181C7D
:100940000484C47C38000000000D0D000000F0F8A5
:1009500018D87878F000070F0C0B0A0A0B00F0F893
:100960008C8C8CF8F0000F0F0000000F0F0004FCBF
:10097000FC4444FCB800080F0F08080F0700F8FCFF
:100980000C04041C1800070F0C08080E060004FCD9
:10099000FC0404FCF800080F0F08080F0700FCFC1B
:1009A0004444440404000F0F080808080800FCFC35
:1009B0004444440404000F0F000000000000F8FC51
:1009C0000404041C1800070F0808090F0700FCFCAA
:1009D000404040FCFC000F0F0000000F0F00000023
:1009E00004FCFC0400000000080F0F0800000000D9
:1009F000000004FCFC00060E0808080F0700FCFCC1
:100A0000C0E0301C0C000F0F0001030E0C00FCFCBA
:100A10000000000000000F0F080808080C00FCFC94
:100A2000306030FCFC000F0F0000000F0F00FCFCDA
:100A300070C080FCFC000F0F0000030F0F00F8FCDB
:100A4000040404FCF800070F0808080F0700FCFC6A
:100A5000848484FC78000F0F000000000000F8FC84
:100A6000040404FCF800070F080C0C1F1700FCFC22
:100A7000C4C4C47C38000F0F0000030F0C00387C86
:100A8000444444DC9800060E0808080F07000004E0
:100A900004FCFC0404000000000F0F000000FCFC3C
:100AA000000000FCFC00070F0808080F07003CFCD2
:100AB000800080FC3C000001070E07010000FCFCE8
:100AC000000000FCFC00070F0C070C0F07000C3C9B
:100AD000F0C0F03C0C000C0F0300030F0C00001CD6
:100AE0007CE0E07C1C000000000F0F00000004040C
:100AF00084C4643C1C000E0F09080808080000FCB0
:100B0000FC0404040000001F1F10101000001C381B
:100B100060C0800000000000000001070E0000041B
:100B20000404FCFC0000001010101F1F0000203007
:100B3000180C183020000000000000000000000029
:100B40000000000000001010101010101000000035
:100B5000040C18100000000000000000000000A0BD
:100B6000A0A0A0E0C000070F0808040F0F00FCFCC5
:100B7000402020E0C0000F0F0408080F0700C0E06D
:100B8000602020604000070F0C08080C0400C0E043
:100B9000202040FCFC00070F0808040F0F00C0E0F5
:100BA000202020E0C000070F0909090D050080F88A
:100BB000FC84848C0800000F0F0000000000C0E0DF
:100BC0002020E0E02000153F2E2E2B391000FCFCE9
:100BD000402020E0C0000F0F0000000F0F000000B9
:100BE00040D8D80000000000080F0F0800000000E7
:100BF000000040D8D80018382020203F1F00FCFCFF
:100C000080C0602000000F0F0103060C08000000E8
:100C100004FCFC0000000000080F0F080000C0E00A
:100C200060C060E0C0000F0F0001000F0F00E0E0A7
:100C3000402020E0C0000F0F0000000F0F00C0E0B8
:100C4000202020E0C000070F0808080F0700E0E0A0
:100C5000402020E0C0003F3F0408080F0700C0E02C
:100C6000202040E0E000070F0808043F3F00E0E0DC
:100C70004020206040000F0F00000000000040E016
:100C8000A02020604000040C09090B0E040040FC69
:100C9000FC404040000000070F08080C0400E0E0A2
:100CA000000000E0E000070F0808040F0F00E0E07C
:100CB000000000E0E00001070E080E070100E0E080
:100CC000000000E0E000070F0C070C0F070060E0D9
:100CD000800080E060000C0E0301030E0C00E0E0D9
:100CE000000000E0E00013372424223F1F002020F2
:100CF00020A0E06020000C0E0B090808080000800E
:100D0000B8FC4404040000000E1F11101000000085
:100D100000FCFC0000000000000F0F0000000004B9
:100D20000444FCB88000001010111F0E00003018A1
:100D30001838303018000000000000000000005E8D
:100D4000BCE2613FDD83C29C7E20A3FD1F41009D6C
:100D500023BE46DB65F88C11AF32CA57E974000038
:100D60000000250028002B000000000024002700C0
:100D70002A000000000023002600290004040404C7
:100D80000404040402020202020203030303030335
:100D9000020203010204081020408001020408102E
:100DA00020010204081020408040000000090003D8
:100DB0000200000405080000000000000000000020
:100DC0000000722411241FBECFEFD8E0DEBFCDBFDC
:100DD00012E0A0E0B1E0EAEAF4E502C005900D926D
:100DE000A833B107D9F723E0A8E3B2E001C01D9210
:100DF000A937B207E1F716E0C2EED6E004C02197AA
:100E0000FE010E94FA27C13ED107C9F70E9492173E
:100E10000C94532A0C940000CF92DF92EF92FF9231
:100E20000F931F93CF93DF934115510509F16A0189
:100E30008C017B01C0E0D0E004C02196CC16DD0619
:100E400069F0D7016D917D01D801ED91FC91019080
:100E5000F081E02DC8010995892B79F7CE01DF914A
:100E6000CF911F910F91FF90EF90DF90CF90089559
:100E7000C0E0D0E0F3CF80E00895DC011A96ED9158
:100E8000FC911B9720E030E00994DC011696ED916F
:100E9000FC91179720E030E040E069E10994DC0123
:100EA0001696ED91FC91179720E030E040E068E164
:100EB00009949A01DC011696ED91FC911797462F43
:100EC00067E10994EF92FF920F931F93CF93DF9303
:100ED0001F92CDB7DEB77C018B01D8016C916731D1
:100EE00099F06831F0F06A31A8F16E3F59F5F801D8
:100EF0004181498369E2C7010E943D070E5F1F4F90
:100F0000D8016C91673169F7F80181818983AE015D
:100F10004F5F5F4F61E0C7010E9459070E5F1F4F8F
:100F2000DCCF653178F0F80141814983D70116960D
:100F3000ED91FC91179720E030E0C70109950E5F15
:100F40001F4FCBCF0F90DF91CF911F910F91FF904B
:100F5000EF9008950F5F1F4FD7011696ED91FC910A
:100F6000179720E030E040E0C7010995B6CF462F43
:100F7000DC011696ED91FC91179720E030E066E1D8
:100F80000994462FDC011696ED91FC91179720E00D
:100F900030E065E10994EF92FF920F931F93CF9396
:100FA000DF93EC01142F79016D3009F4B1C008F41E
:100FB00090C06E30C9F16F3009F044C00E944F07F5
:100FC000F7010381000F000F000F8C89080F60E408
:100FD000CE010E94C107602F62956F706061CE01E3
:100FE0000E94C107602F6F70CE010E94B707F70102
:100FF0006481606BCE010E94B707F7014081518187
:101000006281660F660F660FCE010E94590711506C
:10101000A1F7CE010E94450781E0DF91CF911F919A
:101020000F91FF90EF9008950E944F0761E8CE0165
:101030000E94C107612FCE010E94B707CE010E9416
:101040004507EACF693009F456C06A3009F04BC051
:10105000EA85FB8520E030E040E068E2CE010995BA
:10106000EE81FF8120E030E040E064E1CE010995AF
:1010700041E06BE4CE010E943D07E881F9814481A3
:1010800069E2CE010E943D0740E06BE4CE010E9480
:101090003D07E881F981448169E2CE010E943D0764
:1010A00041E06BE4CE010E943D07E881F981458172
:1010B00069E2CE010E943D0764E271E0CE010E9428
:1010C000620781E0DF91CF911F910F91FF90EF9028
:1010D00008956B3009F0B6CF41112EC06FE171E079
:1010E0000E94620799CF80E0DF91CF911F910F910D
:1010F000FF90EF90089589E591E0998388831C8A99
:1011000081E0DF91CF911F910F91FF90EF900895B3
:10111000411109C063E171E00E946207E881F98131
:1011200082898C8B79CF6CE071E00E946207E88144
:10113000F98183898C8B70CF6AE171E00E9462072C
:101140006BCF611104C06FEF7FEFCB0108956A3060
:10115000D1F3FC01218D21110CC06C3F28F125E059
:10116000218F617070E0FC01738B628B6EEF7FEFFB
:10117000ECCF4FEF420FFC01418F228933890024CD
:10118000369527950794369527950794322F202D6D
:101190006F73F901E62BBF01FC01738B628B442353
:1011A000A1F26EEF7FEFD1CF683F28F024E0FC0181
:1011B000218F6370D7CF603F28F023E0FC01218F9F
:1011C0006770D0CF603E28F022E0FC01218F6F7065
:1011D000C9CF603C28F021E0FC01218F6F71C2CFA4
:1011E00070E0B3CF611103C08FEF9FEF08956A30B5
:1011F000D9F3862F90E008950E943E2ACF93DF9383
:101200001F92CDB7DEB76983BE016F5F7F4F0E942B
:10121000B3130F90DF91CF910895EF92FF921F9338
:10122000CF93DF93EC01162F7A01E885F98520E052
:1012300030E040E068E1099560E4CE010E94FE08DC
:10124000E885F9859701412F67E1CE010995E88589
:10125000F98520E030E040E069E1CE01DF91CF91F7
:101260001F91FF90EF900994EF92FF920F931F93BD
:10127000CF937C01C42F8901663109F47BC098F0BB
:10128000683141F008F45AC06931E1F58091770284
:1012900081117AC01092770281E0CF911F910F9156
:1012A000FF90EF9008956431A1F1653159F5809177
:1012B0007702882359F0D7011896ED91FC91199780
:1012C00020E030E040E069E1C7010995D7011896B8
:1012D000ED91FC91199720E030E040E068E1C70112
:1012E000099560E0C7010E94FE086C2FC7010E94AB
:1012F000FE0881E080937702CF911F910F91FF90BC
:10130000EF90089580E0CF911F910F91FF90EF90A3
:101310000895FC0186898F3F11F488E7868BD701F9
:101320001896ED91FC91199798014C2F64E1C70133
:10133000CF911F910F91FF90EF90099480917702C8
:10134000882341F02DC068E1C7010E940D09C851F2
:10135000085E1F4FA801C931B0F76C2FC7010E946A
:101360000D091092770281E0CF911F910F91FF90AC
:10137000EF900895642F0E94FE0881E0CF911F91A5
:101380000F91FF90EF900895D7011896ED91FC9181
:10139000199720E030E040E069E1C70109957ACF74
:1013A000D7011896ED91FC91199720E030E040E0CC
:1013B00069E1C7010995CECFCF93DF93EC01683186
:1013C00009F4CAC0A8F5643109F485C06731A1F5F4
:1013D00080919A02882309F4E5C0842F90E0009759
:1013E00019F140919902F901820F931F61E070E0B9
:1013F00008C070930A03609309033196E817F90750
:1014000099F04032B0F7208140919802A42FB0E0CB
:10141000A858BD4F2C934F5F409398024093990278
:101420003196E817F90769F781E0DF91CF910895C8
:10143000693131F06032C1F380E0DF91CF910895DE
:10144000409199024132E8F58091C0028111FCCFB0
:10145000C091760282E08093C00281E08093C10255
:101460008FEF8093BE021092E3024093E202442386
:1014700051F0415050E04F5F5F4F68E772E082ECFF
:1014800092E00E94432A1092E4028091E402CC0F81
:10149000C82BC093E4028091BF02813009F49EC042
:1014A00085EE8093BC008091C0028230E1F3809190
:1014B000BE028F3F31F08091BE02803211F08091E8
:1014C000BE02109298021092990210929A0281E044
:1014D000DF91CF9108958C859D85AE85BF85892B41
:1014E0008A2B8B2B71F4E881F981A585B0E020EA85
:1014F00036E841E050E00E9400286C877D878E87A7
:101500009F8710929C0210929B0210929802109258
:1015100099021092C00281E08093C1021092BF0232
:1015200061E082E10E94811661E083E10E94811600
:101530008091B9008E7F8093B9008091B9008D7F32
:101540008093B90080E28093B80085E48093BC006A
:1015500081E0DF91CF9108952C853D854E855F8593
:1015600060E072E18AE790E00E94D827DA01C901C1
:101570004097A109B109B695A7959795879580934E
:10158000B8008E8990E09595879591E090939A02A6
:1015900080937602109298021092990281E0DF9176
:1015A000CF910895413208F03FCF8091C00284303E
:1015B00009F03ACF4093BD02442309F435CFF90135
:1015C000ADE9B2E08FEF840F90E00196820F931F98
:1015D00021912D93E817F907D9F726CF1092BF0272
:1015E0008091E4028093BB008091BC0083FDF8CF22
:1015F00085EC8093BC0057CF0F931F93CF93DF935D
:10160000062F10E0F801B897E632F10578F1603462
:1016100008F426C16F73FC01E60FF11D278D2F3FE3
:1016200009F42EC0603108F443C130E0F901E655F9
:10163000F24F4491F901ED56F24F5491F901E458FB
:10164000F24FE491EE2369F0411138C1F0E0EE0F62
:10165000FF1FEE58F24FA591B4912C91252331E054
:1016600009F430E0FC01328F81E00BC0EC5CFF4FED
:101670000C94FA27433020F486E090E00197F1F7CC
:1016800081E0DF91CF911F910F910895DC015F966A
:1016900080E01DC09491F901E458F24F2491222377
:1016A00099F030E0220F331FF901E859F24FC5914C
:1016B000D491F901E25AF24F259134912FB7F89461
:1016C000E881E92BE8832FBF8F5F8631C9F22D9126
:1016D0002F3FD1F330E0F901ED56F24F8031D0F2D7
:1016E0004491F901E458F24F2491222369F330E048
:1016F000220F331FF901E859F24F65917491F901F6
:10170000E25AF24FC591D4912FB7F894FB01908122
:10171000342F309593239083E881E42BE8832FBF07
:10172000D3CF042F10E020E030E09FB7F894409131
:10173000740350917503609176037091770386B5B9
:10174000A89B06C08F3F21F04F5F5F4F6F4F7F4FC9
:101750009FBF762F652F542F4427480F511D611DC1
:10176000711D440F551F661F771F440F551F661FBD
:10177000771F440F551F661F771F0115110521059F
:10178000310509F47DCFFFB7F894809174039091EF
:101790007503A0917603B0917703E6B5A89B05C0C9
:1017A000EF3F19F00196A11DB11DFFBFBA2FA92F60
:1017B000982F88278E0F911DA11DB11D880F991F8D
:1017C000AA1FBB1F880F991FAA1FBB1F880F991F35
:1017D000AA1FBB1F841B950BA60BB70B883E93401B
:1017E000A105B10580F201501109210931094851C3
:1017F0005C4F6F4F7F4F011511052105310519F61B
:101800003FCF6F73DC01A60FB11D5F968C915F9780
:10181000411128C0282F30E0F901ED56F24F949184
:10182000F901E458F24F24912223A9F030E0220F6D
:10183000331FF901E859F24FC591D491F901E25AE9
:10184000F24F259134918FB7F894E881E92BE88322
:101850008FBF5F968C9160E00E94811681E011CF6E
:1018600080E00FCF90E0FC01ED56F24F2491FC0197
:10187000E458F24F8491882309F402CF90E0880F56
:10188000991FFC01E859F24FC591D491FC01E25A2D
:10189000F24FA591B4919FB7F8948881322F30957B
:1018A00083238883EC91E22BEC939FBF81E0E9CE08
:1018B000642F822F0E94811681E0E3CE4430B9F07C
:1018C00068F0483021F14930E1F0453009F0BECEF2
:1018D000209180002F7D20938000B8CE423069F0A7
:1018E000433009F0B3CE24B52F7D24BDAFCE209177
:1018F00080002F7720938000A9CE24B52F7724BDB8
:10190000A5CE2091B0002F7D2093B0009FCE2091D6
:10191000B0002F772093B00099CE0F931F93CF93F1
:10192000DF93EC01D90128813981F90114913196B5
:101930008491319654913196E491411718F08417AF
:1019400008F041C088E0FD0111928A95E9F7FB019A
:101950008081882399F18C9180958C9311968C913C
:101960001197809511968C93119712968C911297DE
:10197000809512968C93129713968C91139780955D
:1019800013968C93139714968C91149780951496B4
:101990008C93149715968C911597809515968C932A
:1019A000159716968C911697809516968C93169788
:1019B00017968C911797809517968C93DF91CF91FE
:1019C0001F910F910895842F90E0811B91095E9FD4
:1019D000E02D1124E89FA001E99F500D1124400F34
:1019E000511D440F551F440F551F440F551FFA0139
:1019F0003496E20FF31F24912C93CA010596E881D7
:101A0000F981E80FF91FE4911196EC931197019673
:101A1000E881F981E80FF91FE4911296EC9312978F
:101A20000196E881F981E80FF91FE4911396EC9390
:101A300013970196E881F981E80FF91FE491149654
:101A4000EC9314970196E881F981E80FF91FE4916E
:101A50001596EC9315970196E881F981E80FF91F27
:101A6000E4911696EC931697455F5F4FE881F981F4
:101A7000E40FF51FE4911796EC93179768CF2F9218
:101A80003F924F925F926F927F928F929F92AF920E
:101A9000BF92CF92DF92EF92FF920F931F93CF935B
:101AA000DF93CDB7DEB762970FB6F894DEBF0FBEF7
:101AB000CDBFDC016A3009F47AC054968D919C91B7
:101AC0005597FC01329624912A8BDA964C90DA973E
:101AD000D9962C91D9972F875D0124E0A20EB11CD5
:101AE0002491319684912F84220E840D888B4D0190
:101AF00084E1880E911C3D0199E1690E711C8F856E
:101B00008F5F281608F450C0298B362E6D011E8673
:101B1000CE0101967C015E841F85052D9701432D22
:101B2000B301C4010E948D0C1C874D8691E09B87F8
:101B3000FA86E986D6011896ED91FC9119979E01D7
:101B4000275F3F4F41E06FE0C501099553941F5F48
:101B5000121518F34394B989EE85BE0FBE87F88934
:101B60004F16C8F2D601D9968C91BA898B0FF6011F
:101B700081AF81E090E062960FB6F894DEBF0FBEB1
:101B8000CDBFDF91CF911F910F91FF90EF90DF902C
:101B9000CF90BF90AF909F908F907F906F905F900D
:101BA0004F903F902F900895E1E0E98BAECF54968F
:101BB000ED91FC9155973396E491DA968C91DA97F2
:101BC000E80FDA96EC93DA97D9961C92D2CF2F923F
:101BD0003F924F925F926F927F928F929F92AF92BD
:101BE000BF92CF92DF92EF92FF920F931F93CF930A
:101BF000DF93CDB7DEB769970FB6F894DEBF0FBE9F
:101C0000CDBF7C015C8B4B8B452B09F4B7C06F8B30
:101C1000788F1E8A1D8A4C0124E0820E911C2C01B3
:101C200034E1430E511C1C0189E1280E311CDE01F8
:101C300011966D0177247394D701ED91FC91019079
:101C4000F081E02DAF89B88D6D90B88FAF8BBDE07E
:101C5000EF33FB0709F08EC0EAE06E1609F474C09A
:101C6000F70184899589FC0132962491298FD70147
:101C7000DA96AC90DA97D996BC91B88B24913196CC
:101C80008491B20FBE878A0D898B88898F5FB817C0
:101C900008F46DC02A8B1F86BF8418890B2D96010E
:101CA000462DB101C2010E948D0C1C87AD867B863A
:101CB000DA86C986D7011896ED91FC9119979E0195
:101CC000275F3F4F41E06FE0C4010995B3941F5F68
:101CD000BE851B1718F3A394EA89FF85EF0FEF87E2
:101CE0002989A216C8F2D701D9968C91B98D8B0F8C
:101CF000F70181AF81E090E02D893E89280F391FDF
:101D00003E8B2D8B8B899C8901979C8B8B8B892B90
:101D100009F092CFC90169960FB6F894DEBF0FBEE5
:101D2000CDBFDF91CF911F910F91FF90EF90DF908A
:101D3000CF90BF90AF909F908F907F906F905F906B
:101D40004F903F902F900895D7015496ED91FC91BC
:101D500055973396E491DA968C91DA97E80FDA96F4
:101D6000EC93DA97D9961C9281E090E0C5CFE1E040
:101D7000EA8B91CF662DC7010995BECF1E8A1D8AB9
:101D80008D899E89C8CF089581E090E030919C02B2
:101D900020919B02321710F480E090E0919581959C
:101DA0009109089580919C0290919B02891730F4CB
:101DB0008F5F80939C0280E090E008958FEF9FEF0B
:101DC000089580919B0290E020919C02821B9109D2
:101DD00008959F92AF92BF92CF92DF92EF92FF92BF
:101DE0000F931F93CF93DF938C016A0180919A0226
:101DF000882309F44EC04115510591F1EB017B0197
:101E0000E40EF51E99249394AA24A394B12C06C041
:101E1000F801B382A282CE15DF0511F1D801ED9150
:101E2000FC910190F081E02D6991B6E1E335FB076B
:101E300069F580919A02882301F18091990280329C
:101E400038F780919802E82FF0E0E858FD4F608362
:101E50008F5F8093980280939902CE15DF05F1F68B
:101E6000C601DF91CF911F910F91FF90EF90DF900E
:101E7000CF90BF90AF909F9008958091C002843022
:101E800051F69092BD0260939D02C5CFC80109959D
:101E9000C2CF413228F79091C002943009F74093A5
:101EA000BD024423E9F2DB01EDE9F2E02FEF240F5C
:101EB00030E022563D4F8D918193E217F307D9F719
:101EC000CFCF4F925F927F928F929F92AF92BF92AD
:101ED000CF92DF92EF92FF920F931F93CF93DF93F6
:101EE000CDB7DEB729970FB6F894DEBF0FBECDBFD2
:101EF000E0911903F0911A0340810180F281E02DF5
:101F0000F8942181542F50952523218378943CE720
:101F100002C03150F9F020812423D9F3F8942281B2
:101F2000252322832181242B21837894ACEBB3E0F9
:101F30001197F1F7F894218152235183A8E8B0E07A
:101F40001197F1F720817894E0E3F3E03197F1F70E
:101F50004223B9F080E029960FB6F894DEBF0FBE99
:101F6000CDBFDF91CF911F910F91FF90EF90DF9048
:101F7000CF90BF90AF909F908F907F905F904F9049
:101F800008957C010091190310911A0365E5C801B9
:101F90000E94DB156701470188E0880E911C6EE7FF
:101FA00070E046E050E080E1E82EF12C9AE6492E00
:101FB000512CD6019D916D0128E030E081E01CC0DC
:101FC000F80170800180F281E02DF894B280A72C96
:101FD000A094BA20B282B180B728B182D7011197FC
:101FE000F1F7B280B728B2827894F2013197F1F715
:101FF000880F2150310901F1E92FE82309F7D801B1
:102000007C901196ED91FC911297F894B280A72CD8
:10201000A094BA20B282B180B728B182DB011197B7
:10202000F1F7B280B728B2827894FA013197F1F7CC
:10203000880F2150310901F7F894D8011196ED91DC
:10204000FC91129791818C918095892381831196BF
:10205000ED91FC91129792818C91809589238283D6
:102060007894C814D90409F0A4CF6EEB80911903B9
:1020700090911A030E94DB158E010F5F1F4F7E01A6
:10208000BAE0EB0EF11C62E070E040E150E026E6C1
:1020900030E0E0911903F0911A03B080A181B28180
:1020A000F89411968C9111978B2911968C93119716
:1020B0001296DC901297AB2CA094DA201296DC9248
:1020C0001297CB010197F1F71196DC9011978A2DA9
:1020D0008D2111968C931197CA010197F1F78C917C
:1020E0007894D9011197F1F79B2D9823AA24A394F2
:1020F000911101C0A12CB080A181B281F8941196F8
:102100009C9111979B2911969C9311971296DC90A4
:1021100012979B2C9094D9201296DC921297CB01A7
:102120000197F1F71196DC901197992D9D21119649
:102130009C931197CA010197F1F79C917894D9016A
:102140001197F1F79B2119F09A2D9260A92EB0807A
:10215000A181B281F89411969C9111979B291196B7
:102160009C9311971296DC9012979B2C9094D920F7
:102170001296DC921297CB010197F1F71196DC9041
:102180001197992D9D2111969C931197CA01019742
:10219000F1F79C917894D9011197F1F79B2119F0EF
:1021A0009A2D9460A92EB080A181B281F8941196E5
:1021B0009C9111979B2911969C9311971296DC90F4
:1021C00012979B2C9094D9201296DC921297CB01F7
:1021D0000197F1F71196DC901197992D9D21119699
:1021E0009C931197CA010197F1F79C917894D901BA
:1021F0001197F1F79B2119F09A2D9860A92EB080C4
:10220000A181B281F89411969C9111979B29119606
:102210009C9311971296DC9012979B2C9094D92046
:102220001296DC921297CB010197F1F71196DC9090
:102230001197992D9D2111969C931197CA01019791
:10224000F1F79C917894D9011197F1F79B2119F03E
:102250009A2D9061A92EB080A181B281F894119637
:102260009C9111979B2911969C9311971296DC9043
:1022700012979B2C9094D9201296DC921297CB0146
:102280000197F1F71196DC901197992D9D211196E8
:102290009C931197CA010197F1F79C917894D90109
:1022A0001197F1F79B2119F09A2D9062A92EB08019
:1022B000A181B281F89411969C9111979B29119656
:1022C0009C9311971296DC9012979B2C9094D92096
:1022D0001296DC921297CB010197F1F71196DC90E0
:1022E0001197992D9D2111969C931197CA010197E1
:1022F000F1F79C917894D9011197F1F79B2119F08E
:102300009A2D9064A92EA0810180F281E02DF8948D
:1023100091819A2B9183B281BA2EB094BB21B28362
:10232000CB010197F1F7B1819B2D9B239183CA01CA
:102330000197F1F790817894F9013197F1F79A2399
:1023400019F09A2D9068A92ED801AD928D01AE1585
:10235000BF0509F09ECEE0911903F0911A03208188
:102360000180F281E02DF8948181322F3095832312
:10237000818378949CE703C0915009F4EBCD808170
:102380008223D1F3F8948281832382838181822BFB
:10239000818378948CEB93E00197F1F7F894818135
:1023A0003823318388E890E00197F1F780817894B1
:1023B000E0E3F3E03197F1F7282309F0CBCD8981F1
:1023C000E82FEF70F0E0E25CF24F949182958F700D
:1023D000E82FF0E0E25BF24FE491E9278A819E2F3B
:1023E0009827E92FEF70F0E0E25CF24F849192952C
:1023F0009F70E92FF0E0E25BF24FE491E8278B81D8
:102400008E27E82FEF70F0E0E25CF24F9491829516
:102410008F70E82FF0E0E25BF24FE4919E278C8111
:102420009827E92FEF70F0E0E25CF24F84919295EB
:102430009F70E92FF0E0E25BF24FE4918E272D814F
:102440008227E82FEF70F0E0E25CF24F94918295E2
:102450008F70E82FF0E0E25BF24FE491E9278E8184
:102460008E27E82FEF70F0E0E25CF24F9491E82FB6
:10247000E295EF70F0E0E25BF24FE4919E278F81EE
:102480009827E92FEF70F0E0E25CF24F849192958B
:102490009F70E92FF0E0E25BF24FE491E827888536
:1024A0008E27E82FEF70F0E0E25CF24F9491829576
:1024B0008F70E82FF0E0E25BF24FE491E927898525
:1024C0008E1348CD2F3379F048F02F3529F02F3770
:1024D00009F040CD8CE03FCD8BE03DCD2F3109F0B0
:1024E00039CD89E038CD8AE036CD2F923F924F9298
:1024F0005F926F927F928F929F92AF92BF92CF9294
:10250000DF92EF92FF920F931F93CF93DF93EC0133
:102510008B018D858823B9F01B861D861C8680E083
:10252000DF91CF911F910F91FF90EF90DF90CF90AF
:10253000BF90AF909F908F907F906F905F904F90E3
:102540003F902F9008952881E981FA81F894818144
:10255000322F30958323818378949CE702C0915079
:10256000D9F280818223D9F3F894828183238283F4
:102570008181822B818378948CEB93E00197F1F732
:10258000F89481813823318388E890E00197F1F74E
:1025900080817894E0E3F3E03197F1F7282309F0A4
:1025A000BBCF60EFCE010E94DB1581E0F12C812CC6
:1025B000EE24E39462E070E020E130E046E650E093
:1025C0009AE6692E712CEEE72E2E312CF6E0AF2E16
:1025D000B12C2AC0442009F47EC0FE01EF0DF11D8C
:1025E0009381D82ED0949D2193839881E981FA819B
:1025F000F894D280C92EC094DC20D282D180D92A0E
:10260000D182D1011197F1F7D2809D2992837894DC
:10261000F5013197F1F7E394880F11F4F39481E019
:10262000B7E0BF1508F472C09881E981FA81F89487
:10263000D180D92AD182D280992E9094D920D28269
:10264000DB011197F1F7D1809D209182D90111977B
:10265000F1F790807894FA013197F1F74880E98199
:10266000FA81F894D180D428D182D280542C50940D
:10267000D520D282DB011197F1F7D1805D20518204
:10268000D9011197F1F7E0814E227894FA01319740
:10269000F1F7992109F49ECF411038C0FE01EF0DEA
:1026A000F11D9381982B93839880E981FA81F894A6
:1026B0009281D92CD0949D219283918199299183E3
:1026C000D9011197F1F79281992992837894F301B6
:1026D0003197F1F7A0CF9B85E91668F4FE01EF0D65
:1026E000F11D9381D92ED822E9F6A8E0AE1508F0A5
:1026F000EC868E2C76CFDD24D3949E11D12CFE0156
:10270000EF0DF11D9381D110CDCFEFCFE0E4EE15A9
:1027100008F002CF8B86882019F18B81882309F479
:10272000FBCED8018C938C8111968C9311978D815F
:1027300012968C9312978E8113968C9313978F8198
:1027400014968C931497888515968C931597898584
:1027500016968C9316978A8517968C9381E0E0CE17
:1027600081E08D87DACF9B01DC011896ED91FC9119
:10277000199741E067E109941F920F920FB60F92EB
:1027800011242F933F934F935F936F937F938F9376
:102790009F93AF93BF93EF93FF938091B900E82F7E
:1027A000E87F8E2F90E0893C910568F5FC01E65AA0
:1027B000FF4F0C94FA2784E08093C0021092E50248
:1027C0001092BD02E0E0F0E009958091BD02811118
:1027D00005C081E08093BD0210929D02E091E50268
:1027E00081E08E0F8093E502F0E0E356FD4F80819B
:1027F0008093BB009091E5028091BD029817C8F4C8
:1028000085EC8093BC00FF91EF91BF91AF919F91B8
:102810008F917F916F915F914F913F912F910F9089
:102820000FBE0F901F90189580910603803208F418
:10283000A8C085E88093BC00E6CFE091E30281E088
:102840008E0F8093E3028091BB00F0E0EE53FD4FCA
:1028500080839091E3028091E202981750F7D0CFE5
:1028600080E38093BE0285ED8093BC008091BC0024
:1028700084FDFCCF1092C002C6CF88E38093BE02D5
:1028800085EC8093BC001092C002BDCFE091E302C2
:1028900081E08E0F8093E3028091BB00F0E0EE5365
:1028A000FD4F80838091C102882309F47AC085EDB1
:1028B0008093BC008091BC0084FDFCCFDBCF83E023
:1028C0008093C0021092060385EC8093BC009BCFDE
:1028D0001092BE0285ED8093BC008091BC0084FD07
:1028E000FCCFC8CF8091E4028093BB0085EC80933D
:1028F000BC0089CF9091E3028091E202981708F41E
:1029000059C08091C102882309F44BC085ED8093A2
:10291000BC008091BC0084FDFCCFACCF80E28093F2
:10292000BE0285ED8093BC008091BC0084FDFCCF8D
:10293000A1CF85EC8093BC001092C0028091060369
:10294000803230F4E0910603F0E0EA51FD4F10824E
:102950006091060370E086EE92E0E0E0F0E0099519
:102960001092060350CF85EC8093BC001092C002F9
:102970004ACF85ED8093BC008091BC0084FDFCCFE4
:1029800079CFE091060381E08E0F8093060380915A
:10299000BB00F0E0EA51FD4F808385EC8093BC00E2
:1029A00032CF81E08093BF0284EA8093BC00109212
:1029B000C00229CFE091E30281E08E0F8093E30211
:1029C000F0E0EE53FD4F80818093BB0085EC809357
:1029D000BC0019CFCF92DF92FF920F931F93CF933A
:1029E000DF9300D000D01F92CDB7DEB78C011C82E0
:1029F00081E08B837A836983F801A081B18151964C
:102A0000FC9051971D8203C0F801A081B181F801AB
:102A1000C480D5809E012F5F3F4F50964C916FE050
:102A2000C801F60109958D818F5F8D838F1560F345
:102A30000F900F900F900F900F90DF91CF911F91FB
:102A40000F91FF90DF90CF90089590E0FC01ED563C
:102A5000F24F2491FC01E458F24F8491882399F0BD
:102A600090E0880F991FFC01E859F24FA591B491AD
:102A7000FC01E25AF24F859194918FB7F894EC9152
:102A8000E22BEC938FBF08952F923F924F925F926B
:102A90006F927F928F929F92AF92BF92CF92DF926E
:102AA000EF92FF920F931F93CF93DF93CDB7DEB7D3
:102AB0002F970FB6F894DEBF0FBECDBF382E6E87AE
:102AC000E0913B03F0913C03329624912F871092C2
:102AD00044034A01212CCE0101966C0177247394A2
:102AE000F40161914F01E0912D03F0912E038BE2EF
:102AF00093E009958F3FFFEF9F0709F442C08E3F97
:102B00002FEF920769F3B82E80913B0390913C031D
:102B1000FC013296449031965490A32CA40C8E85DF
:102B2000580E81E0830DA81610F444244394EE84DB
:102B3000612CF62C132D0F2D96014B2D60E473E0C4
:102B40008BE393E00E948D0C1C87ED867B86DA86F2
:102B5000C986E0912F03F09130039E01275F3F4F1C
:102B600041E06FE08BE293E00995F3941F5F1A1543
:102B700010F3E394640CE514E0F29F85390E23947E
:102B8000AFCF822D2F960FB6F894DEBF0FBECDBF0C
:102B9000DF91CF911F910F91FF90EF90DF90CF9039
:102BA000BF90AF909F908F907F906F905F904F906D
:102BB0003F902F9008958F929F92AF92BF92CF92A5
:102BC000DF92EF92FF920F931F93CF93DF93DC017D
:102BD00048E050E021E00EE710E086E0882E912CDE
:102BE00090E1C92ED12C3AE6E32EF12C1CC08C9139
:102BF0001196ED91FC911297F8949281382F3095AF
:102C0000932392839181982B9183E6012197F1F789
:102C10009281892B82837894C7010197F1F7220F63
:102C200041505109F9F0862F822309F79C911196A2
:102C3000ED91FC911297F8948281392F309583237E
:102C400082838181892B8183E8012197F1F7828139
:102C5000982B92837894C4010197F1F7220F415089
:102C6000510909F7F8941196ED91FC911297918111
:102C70008C918095892381831196ED91FC91129717
:102C800092818C918095892382837894DF91CF9172
:102C90001F910F91FF90EF90DF90CF90BF90AF907A
:102CA0009F908F900895FC0190919A029923D1F002
:102CB00090919902903238F081E090E09383828382
:102CC00080E090E0089580919802E82FF0E0E858C5
:102CD000FD4F60838F5F809398028093990281E01B
:102CE00090E008958091C002843019F081E090E076
:102CF000089581E08093BD0260939D0281E090E0A1
:102D0000089590E0FC01E655F24F2491FC01ED5648
:102D1000F24F3491FC01E458F24F84918823A1F0E2
:102D2000211118C0E82FF0E0EE0FFF1FE25AF24F1A
:102D3000A591B4918FB7F894611107C09C91E32FCE
:102D4000E095E923EC938FBF0895EC91E32BEC938E
:102D50008FBFFACF243029F160F02830E1F029301C
:102D6000A1F02530F9F6909180009F7D909380002E
:102D7000D9CF223031F02330A9F694B59F7D94BD90
:102D8000D1CF94B59F7794BDCDCF9091B0009F7D6A
:102D90009093B000C7CF9091B0009F779093B00010
:102DA000C1CF909180009F7790938000BBCF0F930D
:102DB0001F938B019C019FB7F8944091740350912D
:102DC0007503609176037091770386B5A89B06C062
:102DD0008F3F21F04F5F5F4F6F4F7F4F9FBF762F29
:102DE000652F542F4427480F511D611D711D440F3D
:102DF000551F661F771F440F551F661F771F440F0F
:102E0000551F661F771F0115110521053105E9F1D1
:102E1000FFB7F8948091740390917503A0917603A5
:102E2000B0917703E6B5A89B05C0EF3F19F0019676
:102E3000A11DB11DFFBFBA2FA92F982F88278E0F74
:102E4000911DA11DB11D880F991FAA1FBB1F880FBF
:102E5000991FAA1FBB1F880F991FAA1FBB1F841B86
:102E6000950BA60BB70B883E9340A105B10580F2E8
:102E7000015011092109310948515C4F6F4F7F4FB3
:102E8000011511052105310519F61F910F910895BE
:102E90001F920F920FB60F9211242F933F938F938F
:102EA0009F93AF93BF938091700390917103A09112
:102EB0007203B09173033091780326E0230F2D370E
:102EC00068F129E8230F0396A11DB11D2093780313
:102ED0008093700390937103A0937203B093730374
:102EE0008091740390917503A0917603B09177035C
:102EF0000196A11DB11D8093740390937503A09357
:102F00007603B0937703BF91AF919F918F913F91DB
:102F10002F910F900FBE0F901F9018950296A11D34
:102F2000B11DD4CFCF93DF93CDB7DEB76B970FB67C
:102F3000F894DEBF0FBECDBF789484B5826084BDA7
:102F400084B5816084BD85B5826085BD85B58160AD
:102F500085BD80916E00816080936E00109281002B
:102F600080918100826080938100809181008160E6
:102F700080938100809180008160809380008091A7
:102F8000B10084608093B1008091B0008160809333
:102F9000B00080917A00846080937A0080917A00FA
:102FA000826080937A0080917A008E7F80937A008D
:102FB00080917A00806880937A001092C100E0913D
:102FC0002F03F091300320E030E040E06AE08BE234
:102FD00093E00995CE0101969B8B8A8B88E0AA89A4
:102FE000BB891D928A95E9F7BE016F5F7F4F8BE227
:102FF00093E00E94EA14E0912F03F091300320E067
:1030000030E040E06BE08BE293E0099589E00E94BC
:10301000251560E089E00E94811688E00E94251550
:1030200061E088E00E948116E1EAFDE02491EAE88F
:10303000FDE084918823C9F090E0880F991FFC017E
:10304000E859F24FA591B491825A924FFC014591F3
:1030500054913FB7F8949C91822F809598239C932C
:10306000FA019081892380833FBF81E10E94251569
:103070008FE00E94251560E08FE00E94811664E6D3
:1030800070E080E090E00E94D716E0911903F09183
:103090001A031386158614861286339687E0DF019D
:1030A0001D928A95E9F71092170310921803FE01FA
:1030B00039962F01AEE76A2E712CB6E08B2E912C3B
:1030C00010E1E12EF12C0AE6A02EB12C82E0C82EF0
:1030D000D12CBE016F5F7F4F8091190390911A032D
:1030E0000E947512882309F49EC02981E22FEF7097
:1030F000F0E0E25CF24F8491E22FE295EF70F0E0B5
:10310000E25BF24FE491982F9E278A818927E82F6E
:10311000EF70F0E0E25CF24F9491E82FE295EF70EF
:10312000F0E0E25BF24FE4919E278B818927E82F44
:10313000EF70F0E0E25CF24F9491E82FE295EF70CF
:10314000F0E0E25BF24FE4919E278C818927E82F23
:10315000EF70F0E0E25CF24F9491E82FE295EF70AF
:10316000F0E0E25BF24FE4919E278D818927E82F02
:10317000EF70F0E0E25CF24F9491E82FE295EF708F
:10318000F0E0E25BF24FE4919E278E818927E82FE1
:10319000EF70F0E0E25CF24F9491E82FE295EF706F
:1031A000F0E0E25BF24FE4919E278F818927E82FC0
:1031B000EF70F0E0E25CF24F9491E82FE295EF704F
:1031C000F0E0E25BF24FE491892F8E279885981307
:1031D00080CF80911303882309F47AC510911403DA
:1031E000203109F46AC5CE0101960E94610F811752
:1031F00008F051C680911403998180931403809143
:1032000017038F5F80931703983239F008F04EC58B
:10321000903119F0923209F05CCF809118038F5FE2
:103220008093180356CF64E670E080E090E00E943F
:10323000D716809100019091010188969093010129
:103240008093000185E495E090933C0380933B03D9
:1032500072EF272E78E0372E30922E0320922D0326
:1032600049E851E060E082E00E94441530922E036C
:1032700020922D0346E951E061E081E00E9444156F
:1032800030922E0320922D0345EA51E062E080E067
:103290000E944415E0E4EE2EE3E0FE2EF0923C03A3
:1032A000E0923B0330922E0320922D0346EB51E037
:1032B00064E081E00E94441530922E0320922D0399
:1032C00045EC51E065E082E00E94441568E873E156
:1032D00080E090E00E94D71688E0AA89BB891D9201
:1032E0008A95E9F7BE016F5F7F4F8BE293E00E9402
:1032F000EA14109260031092610305E010E0F8E018
:10330000DF2EF0923C03E0923B0330922E0320929A
:103310002D0342ED51E060E080E00E9444153092C0
:103320002E0320922D0343EE51E062E082E00E94E2
:10333000441530922E0320922D0341EF51E064E0BA
:1033400080E00E94441530922E0320922D0342E02B
:1033500052E066E080E00E9444153FB7F894809107
:10336000740390917503A0917603B091770326B50D
:10337000A89B05C02F3F19F00196A11DB11D3FBFAD
:10338000BA2FA92F982F8827820F911DA11DB11D3B
:10339000880F991FAA1FBB1F880F991FAA1FBB1F49
:1033A000880F991FAA1FBB1F68EE862E63E0962E1A
:1033B000A12CB12C3FB7F894409174035091750340
:1033C000609176037091770326B5A89B06C02F3FC6
:1033D00021F04F5F5F4F6F4F7F4F3FBF762F652FBD
:1033E000542F4427420F511D611D711D440F551F5D
:1033F000661F771F440F551F661F771F440F551F09
:10340000661F771F481B590B6A0B7B0B483E5340C6
:103410006105710578F2E1E08E1A9108A108B10802
:1034200088519C4FAF4FBF4F81149104A104B10448
:1034300009F0C0CFAA89BB89ED2D1D92EA95E9F765
:10344000BE016F5F7F4F8BE293E00E94EA141092FF
:103450006003109261033FB7F894809174039091D8
:103460007503A0917603B091770326B5A89B05C09C
:103470002F3F19F00196A11DB11D3FBFBA2FA92FF3
:10348000982F8827820F911DA11DB11D880F991FAC
:10349000AA1FBB1F880F991FAA1FBB1F880F991F48
:1034A000AA1FBB1F68EC862E912CA12CB12C3FB714
:1034B000F894409174035091750360917603709174
:1034C000770326B5A89B06C02F3F21F04F5F5F4FC3
:1034D0006F4F7F4F3FBF762F652F542F4427420FEA
:1034E000511D611D711D440F551F661F771F440F2D
:1034F000551F661F771F440F551F661F771F481BF8
:10350000590B6A0B7B0B483E53406105710578F2FD
:10351000F1E08F1A9108A108B10888519C4FAF4F74
:10352000BF4F81149104A104B10409F0C0CF015030
:10353000110909F0E6CECE010A969D8B8C8BDE0137
:103540005296BF8BAE8BBEE7CB2ED12C16E0612EF0
:10355000712C00E1E02EF12C8AE6482E512CE091EE
:103560001903F0911A0320810180F281E02DF89473
:103570008181322F30958323818378949CE702C028
:103580009150E9F080818223D9F3F89482818323DA
:1035900082838181282B218378948CEB93E001979F
:1035A000F1F7F89481813823318388E890E001971E
:1035B000F1F78081789480E393E00197F1F7A0918F
:1035C0001903B0911A0328E030E051E01CC01C91AF
:1035D0001196ED91FC911297F8948281412F4095BC
:1035E000842382838181812B8183C7010197F1F735
:1035F0008281812B82837894C2010197F1F7550F64
:1036000021503109F9F0852F8C7C09F71C91119616
:10361000ED91FC911297F8948281412F409584237B
:1036200082838181812B8183C6010197F1F7828199
:10363000812B82837894C3010197F1F7550F2150B4
:10364000310909F7F8941196ED91FC911297918147
:103650008C918095892381831196ED91FC9112972D
:1036600092818C9180958923828378946091130351
:10367000A0911903B0911A0328E030E051E01DC079
:103680007C911196ED91FC911297F8949281472FBD
:103690004095942392839181972B9183C701019741
:1036A000F1F79281872F892B82837894C201019749
:1036B000F1F7550F2150310901F1852F847401F77D
:1036C0007C911196ED91FC911297F8949281472F7D
:1036D0004095942392839181972B9183C601019702
:1036E000F1F79281872F892B82837894C301019708
:1036F000F1F7550F2150310901F7611114C0F89409
:103700001196ED91FC91129791818C91809589236E
:1037100081831196ED91FC91129792818C91809505
:10372000892382837894809115038111BEC3E0912F
:103730001903F0911A0313861586148612861186D2
:10374000108617821682158214821382BE01665F6C
:103750007F4FCF010E947512882309F474C08A85B7
:10376000E82FEF70F0E0E25CF24F9491E82FE295E1
:10377000EF70F0E0E25BF24FE491E9278B858E2752
:10378000E82FEF70F0E0E25CF24F9491E82FE295C1
:10379000EF70F0E0E25BF24FE4919E278C85892781
:1037A000E82FEF70F0E0E25CF24F9491E82FE295A1
:1037B000EF70F0E0E25BF24FE4919E278D85892760
:1037C000E82FEF70F0E0E25CF24F9491E82FE29581
:1037D000EF70F0E0E25BF24FE4919E278E8589273F
:1037E000E82FEF70F0E0E25CF24F9491E82FE29561
:1037F000EF70F0E0E25BF24FE4919E278F8589271E
:10380000E82FEF70F0E0E25CF24F9491E82FE29540
:10381000EF70F0E0E25BF24FE4919E278889892700
:10382000E82FEF70F0E0E25CF24F9491E82FE29520
:10383000EF70F0E0E25BF24FE491892F8E279989D7
:10384000981709F4B6C360E070E08EEF92EC6093D5
:103850000201709303018093040190930501EBEB47
:10386000FDE09491E4EAFDE02491EDE8FDE034917F
:10387000332389F091110C946D23E32FF0E0EE0FC8
:10388000FF1FE25AF24FA591B4919FB7F8948C9123
:10389000822B8C939FBF80E480937C0080917A0080
:1038A000806480937A0080917A0086FDFCCF6091DD
:1038B00078008091790070E0782B072E000C880B3F
:1038C000990B0E94452960933802709339028093C6
:1038D0003A0290933B0280E480937C0080917A00CE
:1038E000806480937A0080917A0086FDFCCF60919D
:1038F00078008091790070E0782B072E000C880BFF
:10390000990B0E9445296093380270933902809385
:103910003A0290933B02EBEBFDE02491E4EAFDE0F8
:103920003491EDE8FDE044914423D1F02111EBC640
:10393000E42FF0E0EE0FFF1FE25AF24FA591B49191
:103940002FB7F8949C91832F809589238C932FBF58
:10395000609138027091390280913A0290913B0255
:1039600020E030E040EA5BE30E94D1294B015C019A
:103970006091000170910101072E000C880B990BDA
:103980000E944529A50194010E94D129688F798F51
:103990008A8F9B8FA501940160E070E080EA90E43B
:1039A0000E942E289B01AC01688D798D8A8D9B8D9C
:1039B0000E949B2820E030E040E252E40E942E2842
:1039C0009B01AC0160934E0270934F0280935002B2
:1039D000909351026CEE71E588E390E40E949B287D
:1039E0004B015C0120E030E048EC51E460910201C1
:1039F0007091030180910401909105010E942E288D
:103A00002CE731ED4EE95CE30E94D12920E030E063
:103A100040E85FE30E942F289B01AC01C501B4017F
:103A20000E949B286093400270934102809342025F
:103A30009093430220E030E849E054E40E94D12909
:103A40000E940D29CB0160E177E20E94C427072E76
:103A5000000C880B990B0E94452960933C027093DF
:103A60003D0280933E0290933F028AE497E0909358
:103A70003C0380933B0330922E0320922D0343E1BD
:103A800052E060E080E00E94441560914E02709127
:103A90004F02809150029091510204E412E020E024
:103AA00046E00E943B2530922E0320922D03A80170
:103AB00060E084E00E94441530922E0320922D0392
:103AC00047E152E060E08CE00E94441530922E0302
:103AD00020922D034CE152E062E080E00E94441508
:103AE00060914002709141028091420290914302A4
:103AF00021E043E00E943B2530922E0320922D03CB
:103B0000A80162E085E00E94441530922E032092C5
:103B10002D0341E252E062E08BE00E9444153092B6
:103B20002E0320922D0347E252E064E080E00E94E1
:103B3000441560913C0270913D0280913E0290914B
:103B40003F0226E042E00E943B2530922E03209265
:103B50002D03A80164E085E00E944415A1EAB8E0C5
:103B6000B0932E03A0932D034CE252E064E08FE06B
:103B70000E94441530922E0320922D034EE252E013
:103B800066E080E00E94441560910201709103019B
:103B9000809104019091050121E042E00E943B25C3
:103BA00030922E0320922D03A80166E086E00E9449
:103BB0004415E1EAF8E0F0932E03E0932D0344E38B
:103BC00052E066E08AE00E9444159FB7F894409165
:103BD000740350917503609176037091770386B5F5
:103BE000A89B06C08F3F21F04F5F5F4F6F4F7F4F05
:103BF0009FBF762F652F542F4427480F511D611DFD
:103C0000711D440F551F661F771F440F551F661FF8
:103C1000771F440F551F661F771F08E813E120E048
:103C200030E0FFB7F8948091740390917503A091F0
:103C30007603B0917703E6B5A89B05C0EF3F19F076
:103C40000196A11DB11DFFBFBA2FA92F982F88275C
:103C50008E0F911DA11DB11D880F991FAA1FBB1F9B
:103C6000880F991FAA1FBB1F880F991FAA1FBB1F70
:103C7000841B950BA60BB70B883E9340A105B1059D
:103C800080F2015011092109310948515C4F6F4FF1
:103C90007F4F011511052105310519F680E090E0EF
:103CA000892B09F45CCC0E94000059CC9B3309F4A9
:103CB000B4CA923409F00DCAB0CA1D3008F4AEC0BF
:103CC00010931403809117038F5F80931703A5CA85
:103CD000E0911903F0911A0320810180F281E02D17
:103CE000F8949181822F80959823918378949CE712
:103CF0003081322309F09BC09150D1F70091190314
:103D000010911A0365E5C8010E94DB15CE010196EA
:103D10001C01D1016D911D0128E030E091E0862F5A
:103D2000892309F49FC0D8018C911196ED91FC91E3
:103D30001297F8944281582F509545234283418130
:103D4000482B4183D7011197F1F74281842B82835D
:103D50007894F5013197F1F7990F21503109F9F66F
:103D6000F894F801A181B28111968C9111979081FC
:103D70009095892311968C93A181B28112968C9192
:103D8000129790819095892312968C93789424149D
:103D9000350409F0BECF64EB8091190390911A03AA
:103DA0000E94DB15E0911903F0911A0390810180C4
:103DB000F281E02DF8948181892B81832281892FE2
:103DC000809528232283D6011197F1F72181822340
:103DD0008183D7011197F1F7808198237894E6E6E3
:103DE000F0E03197F1F7E0911903F0911A03308177
:103DF0000180F281E02DF8942181832F8095282382
:103E0000218378942CE74081432309F04AC521504F
:103E1000D1F7992309F460C52981E0C98CE080932A
:103E20001403809117038F5F80931703F6C9F894EA
:103E30009281982392839181922B91837894ACEB19
:103E4000B3E01197F1F7F89491818923818388E891
:103E500090E00197F1F78081789480E393E00197F7
:103E6000F1F74CCFF80180810180F281E02DF894C8
:103E70004281582F5095452342834181482B4183ED
:103E8000D3011197F1F74281842B82837894F40156
:103E90003197F1F761CF8981803109F4BFCFCE012D
:103EA00001960E94610F9981A8C9E0911403E9501D
:103EB000E33008F00FC4F0E0EE0FFF1FEA5FFE4FA3
:103EC0004081518190911603992329F08091130329
:103ED000882309F446C4CA01550FAA0BBB0B5FB770
:103EE000F89400917403109175032091760330913A
:103EF000770346B5A89B06C04F3F21F00F5F1F4FC9
:103F00002F4F3F4F5FBF322F212F102F0027040F5D
:103F1000111D211D311D000F111F221F331F000F06
:103F2000111F221F331F000F111F221F331F009765
:103F3000A105B10509F4FBCBFFB7F89440917403D8
:103F4000509175036091760370917703E6B5A89B55
:103F500006C0EF3F21F04F5F5F4F6F4F7F4FFFBFB6
:103F6000762F652F542F44274E0F511D611D711D53
:103F7000440F551F661F771F440F551F661F771F7D
:103F8000440F551F661F771F401B510B620B730BAD
:103F9000483E53406105710578F20197A109B109C6
:103FA00008511C4F2F4F3F4F0097A105B10521F637
:103FB000BECBE0911903F0911A0320810180F281B8
:103FC000E02DF8948181322F30958323818378947A
:103FD0009CE703C0915009F436CC80818223D1F351
:103FE000F8948281832382838181822B81837894D8
:103FF0008CEB93E00197F1F7F894818138233183BA
:1040000088E890E00197F1F780817894E0E3F3E0AD
:104010003197F1F7282309F016CCA0911903B0913C
:104020001A0328E030E051E01CC01C911196ED917C
:10403000FC911297F8948281412F409584238283CA
:104040008181812B8183C7010197F1F78281812BC7
:1040500082837894C2010197F1F7550F21503109FD
:10406000F9F0852F857509F71C911196ED91FC915A
:104070001297F8948281412F409584238283818115
:10408000812B8183C6010197F1F78281812B828385
:104090007894C3010197F1F7550F2150310909F7C1
:1040A000F8941196ED91FC91129781819C919095D5
:1040B000892381831196ED91FC91129782819C91C5
:1040C0009095892382837894AE01465F5F4FFA0111
:1040D0001191AF0128E030E071E01CC00C91119605
:1040E000ED91FC911297F8948281602F6095862360
:1040F00082838181802B8183C7010197F1F78281BF
:10410000802B82837894C2010197F1F7770F2150B9
:10411000310901F1812F872309F70C911196ED9157
:10412000FC911297F8949281602F60959623928368
:104130009181902B9183C6010197F1F79281802F95
:10414000892B82837894C3010197F1F7770F21506F
:10415000310901F7F8941196ED91FC911297918134
:104160008C918095892381831196ED91FC91129712
:1041700092818C9180958923828378948E899F89FE
:104180008417950709F0A3CFA0911903B0911A03E2
:1041900028E030E051E01CC01C911196ED91FC919B
:1041A0001297F8948281412F4095842382838181E4
:1041B000812B8183C7010197F1F78281812B828353
:1041C0007894C2010197F1F7550F2150310901F19F
:1041D000852F8E7B09F71C911196ED91FC9112971A
:1041E000F8949281412F4095942392839181912B51
:1041F0009183C6010197F1F79281812F892B8283E8
:104200007894C3010197F1F7550F2150310901F757
:10421000F8941196ED91FC91129781819C91909563
:10422000892381831196ED91FC91129782819C9153
:1042300090958923828378948E010F5F1F4F42E00F
:1042400050E026E630E0E0911903F0911A03B080C7
:10425000A181B281F89411968C9111978B291196B6
:104260008C93119712966C911297AB2CA0946A21A3
:1042700012966C931297CA010197F1F711966C91FF
:1042800011978A2D862311968C931197C701019758
:10429000F1F78C917894D9011197F1F79B2D982320
:1042A000AA24A394911101C0A12C9080A181B28174
:1042B000F89411966C911197692911966C93119746
:1042C00012966C911297B92CB0946B2112966C9344
:1042D0001297CA010197F1F711966C911197B622C6
:1042E0001196BC921197C7010197F1F76C917894E0
:1042F000D9011197F1F7992D962319F09A2D926013
:10430000A92E9080A181B281F89411966C91119799
:10431000692911966C93119712966C911297B92C8A
:10432000B0946B2112966C931297CA010197F1F722
:1043300011966C911197B6221196BC921197C701F4
:104340000197F1F76C917894D9011197F1F7992DB4
:10435000962319F09A2D9460A92E9080A181B281A4
:10436000F89411966C911197692911966C93119795
:1043700012966C911297B92CB0946B2112966C9393
:104380001297CA010197F1F711966C911197B62215
:104390001196BC921197C7010197F1F76C9178942F
:1043A000D9011197F1F7992D962319F09A2D98605C
:1043B000A92E9080A181B281F89411966C911197E9
:1043C000692911966C93119712966C911297B92CDA
:1043D000B0946B2112966C931297CA010197F1F772
:1043E00011966C911197B6221196BC921197C70144
:1043F0000197F1F76C917894D9011197F1F7992D04
:10440000962319F09A2D9061A92E9080A181B281F6
:10441000F89411966C911197692911966C931197E4
:1044200012966C911297B92CB0946B2112966C93E2
:104430001297CA010197F1F711966C911197B62264
:104440001196BC921197C7010197F1F76C9178947E
:10445000D9011197F1F7992D962319F09A2D9062B1
:10446000A92E9080A181B281F89411966C91119738
:10447000692911966C93119712966C911297B92C29
:10448000B0946B2112966C931297CA010197F1F7C1
:1044900011966C911197B6221196BC921197C70193
:1044A0000197F1F76C917894D9011197F1F7992D53
:1044B000962319F09A2D9064A92E60810180F281D3
:1044C000E02DF8949181962B91837281962F90958F
:1044D00079237283DA011197F1F771819723918320
:1044E000D7011197F1F790817894F9013197F1F79D
:1044F000962319F0AA2DA068AA2EF801A1928F0187
:104500008C899D898E179F0709F09DCEE091190334
:10451000F0911A0320810180F281E02DF8948181CD
:10452000322F30958323818378949CE703C0915088
:1045300009F489C980818223D1F3F894828183238D
:1045400082838181822B818378948CEB93E0019725
:10455000F1F7F89481813823318388E890E001975E
:10456000F1F780817894E0E3F3E03197F1F72823C5
:1045700009F069C98981E82FEF70F0E0E25CF24F41
:104580009491E82FE295EF70F0E0E25BF24FE49156
:104590009E272A819227E92FEF70F0E0E25CF24F2C
:1045A0003491E92FE295EF70F0E0E25BF24FE49195
:1045B000932F9E273B819327E92FEF70F0E0E25C79
:1045C000F24F349192959F70E92FF0E0E25BF24F49
:1045D000E491E3279C819E27E92FEF70F0E0E25CF5
:1045E000F24F3491E92FE295EF70F0E0E25BF24F89
:1045F000E4913E279D819327E92FEF70F0E0E25C84
:10460000F24F3491E92FE295EF70F0E0E25BF24F68
:10461000E491932F9E273E813927E32FEF70F0E03E
:10462000E25CF24F9491E32FE295EF70F0E0E25BF1
:10463000F24F449194273F81492F4327E42FEF7095
:10464000F0E0E25CF24F9491E42FE295EF70F0E03D
:10465000E25BF24FE4919E2748859427E92FEF70A3
:10466000F0E0E25CF24F5491E92FE295EF70F0E058
:10467000E25BF24FE491952F9E27598595130C9498
:10468000231CE22FF0E0FE2FEE27FF0FFF0FFF0F9E
:1046900090E0880F991F880F991F880F991FE82BAA
:1046A000F92B8A85803109F443C0BF01613894EE4B
:1046B000790714F40C94231C072E000C880B990B1B
:1046C0000E94452920E030E040E05CE30E94D129CF
:1046D0000C94271C4EEE52E0F5CB943009F4ADC09B
:1046E00008F494C0983009F4BBC0993009F4B1C003
:1046F000953011F00C943D1C809180008F7D80934B
:1047000080000C943D1C243009F4BFC008F48AC01A
:10471000283009F4B3C0293009F4A9C0253009F0C4
:1047200007C9809180008F7D809380000C94981C35
:10473000642F70E0CB01831B91099695982F8827F1
:10474000979587950E94C42760517109CF01807F9A
:10475000880F991F880F991F880F991F680F791F5D
:10476000A5CF8FB7F8948090700390907103A090BC
:104770007203B09073038FBF22E030E006E610E0D2
:10478000CA01550FAA0BBB0B888F998FAA8FBB8FBD
:10479000E0911903F0911A0350810180F281E02D1C
:1047A000F8944181452B41836281452F40956423D4
:1047B0006283C9010197F1F7618146234183D701E3
:1047C0001197F1F740817894F8013197F1F745237B
:1047D00011F00C94971BEFB7F8944091700350912F
:1047E00071036091720370917303EFBF888D998D8F
:1047F000AA8DBB8D481B590B6A0B7B0B48155905BD
:104800006A057B0508F4C4CF0C94971B923009F419
:1048100043C0933011F00C943D1C84B58F7D84BD52
:104820000C943D1C223081F0233011F00C94981C24
:1048300084B58F7D84BD0C94981C809180008F7707
:10484000809380000C943D1C84B58F7784BD0C94BC
:10485000981C8091B0008F7D8093B0000C943D1C1B
:104860008091B0008F778093B0000C943D1C8091B4
:10487000B0008F7D8093B0000C94981C8091B000A4
:104880008F778093B0000C94981C809180008F7774
:10489000809380000C94981C84B58F7784BD0C9411
:1048A0003D1CF8942281282322832181232B2183FC
:1048B0007894ACEBB3E01197F1F7F894218182235F
:1048C0008183A8E8B0E01197F1F780817894E0E364
:1048D000F3E03197F1F79DCA81E0809313032981BA
:1048E0000C94EE18CF93DF9310920A0310920903F1
:1048F00088EE93E0A0E0B0E080930B0390930C036C
:10490000A0930D03B0930E0385E791E09093080305
:104910008093070310922A031092290310926003D8
:104920001092610385E891E0909328038093270318
:1049300010922C0310922B03109240031092430309
:1049400010924403109237031092380310923903E7
:1049500010923A03CFEFC0934103C093460346E160
:1049600050E06FEF70E08AE493E00E944C2A8BECF9
:1049700097E09093300380932F0384E399E0909322
:104980003203809331038CED99E09093340380934C
:1049900033038CEF9AE0909336038093350320E045
:1049A00030E040E069E08BE293E00E94CB07C093E7
:1049B0005503C0935603C09357034DE95DE0FA01D8
:1049C000649186E89DE0FC0124912223C1F030E04F
:1049D000220F331FF901E859F24FA591B491F90163
:1049E000E25AF24FC591D4917FB7F8943C91262FAB
:1049F000209532233C933881232328837FBFFA01FB
:104A0000449140936203FC018491E82FF0E0EE0FA3
:104A1000FF1FEE58F24F8591949190936403809319
:104A2000630310926D0310926F0310926E03109245
:104A30006C0387E0E5E6F3E0DF011D928A95E9F774
:104A400082E693E090931A03809319031092170360
:104A5000109218031092130389E08093140381E0ED
:104A6000809315038093160310922603109225035A
:104A7000DF91CF910895EF920F931F93CF93DF9320
:104A8000E80147FD02C034E001C034E1042E000C0F
:104A9000550B57FF03C0519541955109E32E022F45
:104AA000242FAE010E945B25CE01DF91CF911F9193
:104AB0000F91EF900895A9E0B0E0E1E6F5E20C94E3
:104AC00093276A01122FB02E2BE3201720F0FF242A
:104AD000F394F00E02C02CE3F22E0F2D27E0AE016E
:104AE0004F5F5F4F0E94B526BC014981842F8970BA
:104AF000813031F0E1FC06C0E0FE06C090E205C066
:104B00009DE203C09BE201C090E05E2D507143FF27
:104B10003CC0911102C083E001C084E0811718F409
:104B2000212F281B01C020E051110BC0F601822F5C
:104B300030E2882319F031938150FBCFC20ED11C93
:104B400020E0992329F0D6019C93F60131966F015C
:104B5000C6010396E2FE0AC03EE4D6013C9341E45E
:104B600011964C93119712963C9306C03EE6F601BF
:104B7000308341E641833283FC01322F40E233230C
:104B800009F442C041933150FACF42FF44C0911121
:104B900002C083E001C084E0811718F4212F281B94
:104BA00001C020E051110BC0F601822F30E28823B2
:104BB00019F031938150FBCFC20ED11C20E0992314
:104BC00029F0D6019C93F60131966F01C601039638
:104BD000E2FE0BC039E4D6013C933EE411963C93CF
:104BE000119736E412963C9307C039E6F6013083FC
:104BF0003EE6318336E63283FC01322F40E2332336
:104C000019F041933150FBCFFC01E20FF11D1082EE
:104C10008EEF9FEFA6C021E030E0911102C020E0AE
:104C200030E0161617061CF4FB01319602C0E1E0D5
:104C3000F0E02E0F3F1FBB2021F0EB2DF0E031966E
:104C400002C0E0E0F0E02E0F3F1FE12FF0E02E1752
:104C50003F071CF4121B212F01C020E08E2D88710C
:104C600059F4F601822F30E2882319F031938150F4
:104C7000FBCFC20ED11C20E0992329F0D6019C93D2
:104C8000F60131966F0151110BC0F601822F90E3AE
:104C9000882319F091938150FBCFC20ED11C20E0E4
:104CA0000F2D060F9A81342F307144FF03C09133CA
:104CB00009F40150101624F4093018F008E001C07E
:104CC00001E0AB0177FF02C040E050E0FB01E41BD4
:104CD000F50BA1E0B0E0AC0FBD1FEA0FFB1F8EE2A9
:104CE000A82E4B01801A91080B2D10E0119501950B
:104CF00011094F3FBFEF5B0721F4D601AC9211962B
:104D00006D01641775072CF08416950614F48181E3
:104D100001C080E3415051093196D60111967D01C1
:104D20004017510724F0D6018C936701E2CF641736
:104D3000750739F4963320F4953319F4311101C015
:104D400081E3F6018083F701822F90E2882319F036
:104D500091938150FBCFF701E20FF11D108280E0AB
:104D600090E02996ECE00C94AF27283008F027E07B
:104D70003327DA01990F311D87FD91600096610597
:104D8000710539F432602E5F3D9330E32A95E1F7E7
:104D900008959F3F30F080387105610509F03C5F50
:104DA0003C5F3D93913008F08068911DDF93CF9375
:104DB0001F930F93FF92EF92192F987F9695E92FEB
:104DC00096959695E90FFF27E056FD4F99273327D3
:104DD000EE24FF24A701E70105900894079428F426
:104DE000360FE71EF81E491F511D660F771F881FDB
:104DF000991F0694A1F70590079428F4E70EF81E72
:104E0000491F561FC11D770F881F991F661F0694E3
:104E1000A1F70590079428F4F80E491F561FC71FE5
:104E2000D11D880F991F661F771F0694A1F7059063
:104E3000079420F4490F561FC71FD81F990F661FEC
:104E4000771F881F0694A9F784911095177041F079
:104E5000D695C79557954795F794E7941A95C1F756
:104E6000E6E4F2E06894159015913591659195917D
:104E700005907FE27395E118F10A430B560BC90BBD
:104E8000D009C0F7E10CF11E431F561FC91FD01DEA
:104E90007EF4703311F48A95E6CFE894015030F037
:104EA000080F0AF40027021708F4202F2395022F79
:104EB0007A3328F079E37D932A95E9F710C07D9342
:104EC0002A9589F6069497956795379517951794BF
:104ED000E118F10A430B560BC90BD00998F0239542
:104EE0007E9173957A3308F070E37C932013B8F7C2
:104EF0007E9170617D9330F0839571E37D9370E3D3
:104F00002A95E1F71124EF90FF900F911F91CF9117
:104F1000DF91992787FD909508952F923F924F92A8
:104F20005F926F927F928F929F92AF92BF92CF9239
:104F3000DF92EF92FF920F931F93CF93DF93CDB742
:104F4000DEB7CA1BDB0B0FB6F894DEBF0FBECDBFBA
:104F500009942A88398848885F846E847D848C848B
:104F60009B84AA84B984C884DF80EE80FD800C8194
:104F70001B81AA81B981CE0FD11D0FB6F894DEBF77
:104F80000FBECDBFED01089597FB072E16F40094D8
:104F900007D077FD09D00E940B2807FC05D03EF40E
:104FA000909581959F4F0895709561957F4F0895D5
:104FB000A1E21A2EAA1BBB1BFD010DC0AA1FBB1F1D
:104FC000EE1FFF1FA217B307E407F50720F0A21B8F
:104FD000B30BE40BF50B661F771F881F991F1A94FC
:104FE00069F760957095809590959B01AC01BD0126
:104FF000CF010895EE0FFF1F0590F491E02D099465
:105000000E941F28A59F900DB49F900DA49F800D16
:10501000911D11240895AA1BBB1B51E107C0AA1FB3
:10502000BB1FA617B70710F0A61BB70B881F991F49
:105030005A95A9F780959095BC01CD010895A29F3E
:10504000B001B39FC001A39F700D811D1124911D5C
:10505000B29F700D811D1124911D08955058BB27DA
:10506000AA270E9446280C9497290E94892938F083
:105070000E94902920F039F49F3F19F426F40C94F3
:1050800086290EF4E095E7FB0C948029E92F0E9415
:10509000A82958F3BA17620773078407950720F009
:1050A00079F4A6F50C94CA290EF4E0950B2EBA2FCC
:1050B000A02D0B01B90190010C01CA01A00111241E
:1050C000FF27591B99F0593F50F4503E68F11A16CA
:1050D000F040A22F232F342F4427585FF3CF46955B
:1050E00037952795A795F0405395C9F77EF41F167D
:1050F000BA0B620B730B840BBAF09150A1F0FF0F47
:10510000BB1F661F771F881FC2F70EC0BA0F621F32
:10511000731F841F48F4879577956795B795F79522
:105120009E3F08F0B0CF9395880F08F09927EE0FB7
:105130009795879508950E94AF280C9497290E940F
:10514000902958F00E94892940F029F45F3F29F006
:105150000C94802951110C94CB290C9486290E941F
:10516000A82968F39923B1F3552391F3951B550BA7
:10517000BB27AA2762177307840738F09F5F5F4F2A
:10518000220F331F441FAA1FA9F335D00E2E3AF069
:10519000E0E832D091505040E695001CCAF72BD081
:1051A000FE2F29D0660F771F881FBB1F26173707D2
:1051B0004807AB07B0E809F0BB0B802DBF01FF2704
:1051C00093585F4F3AF09E3F510578F00C94802938
:1051D0000C94CB295F3FE4F3983ED4F38695779502
:1051E0006795B795F7959F5FC9F7880F911D9695BD
:1051F000879597F90895E1E0660F771F881FBB1F19
:10520000621773078407BA0720F0621B730B840BC5
:10521000BA0BEE1F88F7E09508950E941429689450
:10522000B1110C94CB2908950E94B02988F09F57A2
:1052300098F0B92F9927B751B0F0E1F0660F771FBA
:10524000881F991F1AF0BA95C9F714C0B13091F0B0
:105250000E94CA29B1E008950C94CA29672F782FBB
:105260008827B85F39F0B93FCCF386957795679575
:10527000B395D9F73EF490958095709561957F4FE1
:105280008F4F9F4F0895E89409C097FB3EF4909587
:105290008095709561957F4F8F4F9F4F9923A9F00F
:1052A000F92F96E9BB279395F6958795779567959E
:1052B000B795F111F8CFFAF4BB0F11F460FF1BC0E2
:1052C0006F5F7F4F8F4F9F4F16C0882311F096E975
:1052D00011C0772321F09EE8872F762F05C0662323
:1052E00071F096E8862F70E060E02AF09A95660FDC
:1052F000771F881FDAF7880F9695879597F9089595
:1053000097F99F6780E870E060E008959FEF80EC78
:10531000089500240A94161617061806090608951B
:1053200000240A9412161306140605060895092E81
:105330000394000C11F4882352F0BB0F40F4BF2BF0
:1053400011F460FF04C06F5F7F4F8F4F9F4F089530
:1053500057FD9058440F551F59F05F3F71F0479526
:10536000880F97FB991F61F09F3F79F0879508950B
:10537000121613061406551FF2CF4695F1DF08C02A
:10538000161617061806991FF1CF86957105610547
:1053900008940895E894BB2766277727CB0197F9EF
:1053A00008950E94E4290C9497290E94892938F0D5
:1053B0000E94902920F0952311F00C9480290C94E0
:1053C000862911240C94CB290E94A82970F3959F5B
:1053D000C1F3950F50E0551F629FF001729FBB27EC
:1053E000F00DB11D639FAA27F00DB11DAA1F649F88
:1053F0006627B00DA11D661F829F2227B00DA11D3B
:10540000621F739FB00DA11D621F839FA00D611DC0
:10541000221F749F3327A00D611D231F849F600DE1
:10542000211D822F762F6A2F11249F5750409AF00A
:10543000F1F088234AF0EE0FFF1FBB1F661F771F96
:10544000881F91505040A9F79E3F510580F00C9461
:1054500080290C94CB295F3FE4F3983ED4F38695E2
:1054600077956795B795F795E7959F5FC1F7FE2B01
:10547000880F911D9695879597F9089581E090E0A2
:10548000F8940C94532AFB01DC0102C001900D92A8
:1054900041505040D8F70895DC0101C06D93415050
:0A54A0005040E0F70895F894FFCFA4
:1054AA00D007000020415E00BC0077011815A01546
:1054BA00C019FF1815A115C819FF1815AE19FF183C
:1054CA0015AF19FF1815AE15D5168015A8163F1574
:1054DA00D316001540158D16141520160015A115A2
:1054EA00C815DA1612158116CF15D916F115DB165D
:1054FA0040152E15A415A619FF0001140A6464327A
:10550A003200127A00000428961008000080004039
:10551A0000000000005316E90EE10ED20EC40EC3BD
:10552A000E000000003F0DE70D415243414449413E
:10553A002048494748005343484F4F4C205343495A
:10554A00454E4345004F4C594D5049414420323055
:10555A0031392D3230004449474954414C204543A2
:10556A0020414E440054454D502E2053454E534F32
:10557A0052002120212020204E4F54452020202156
:10558A002021004D414B4520535552452054484552
:10559A0000534F4C5554494F4E2049532057454CC0
:1055AA004C004D49584544204245464F52452055E6
:1055BA0053450052633A006F686D73004332353ABF
:1055CA00006D532F636D005444533A00250054650F
:0855DA006D703A00C2B04300FD
:00000001FF
